{
	"Contracts/Fund.sol": {
		"Fund": {
			"abi": [
				{
					"inputs": [
						{
							"internalType": "address payable",
							"name": "receiver",
							"type": "address"
						}
					],
					"name": "sendEther",
					"outputs": [],
					"stateMutability": "payable",
					"type": "function"
				}
			],
			"devdoc": {
				"kind": "dev",
				"methods": {},
				"version": 1
			},
			"evm": {
				"assembly": "    /* \"Contracts/Fund.sol\":62:194  contract Fund{\r... */\n  mstore(0x40, 0x80)\n  callvalue\n  dup1\n  iszero\n  tag_1\n  jumpi\n  0x00\n  dup1\n  revert\ntag_1:\n  pop\n  dataSize(sub_0)\n  dup1\n  dataOffset(sub_0)\n  0x00\n  codecopy\n  0x00\n  return\nstop\n\nsub_0: assembly {\n        /* \"Contracts/Fund.sol\":62:194  contract Fund{\r... */\n      mstore(0x40, 0x80)\n      jumpi(tag_1, lt(calldatasize, 0x04))\n      shr(0xe0, calldataload(0x00))\n      dup1\n      0x48c981e2\n      eq\n      tag_2\n      jumpi\n    tag_1:\n      0x00\n      dup1\n      revert\n        /* \"Contracts/Fund.sol\":84:191  function sendEther(address payable receiver) public payable {\r... */\n    tag_2:\n      tag_3\n      0x04\n      dup1\n      calldatasize\n      sub\n      dup2\n      add\n      swap1\n      tag_4\n      swap2\n      swap1\n      tag_5\n      jump\t// in\n    tag_4:\n      tag_6\n      jump\t// in\n    tag_3:\n      stop\n    tag_6:\n        /* \"Contracts/Fund.sol\":155:163  receiver */\n      dup1\n        /* \"Contracts/Fund.sol\":155:172  receiver.transfer */\n      0xffffffffffffffffffffffffffffffffffffffff\n      and\n        /* \"Contracts/Fund.sol\":155:183  receiver.transfer(msg.value) */\n      0x08fc\n        /* \"Contracts/Fund.sol\":173:182  msg.value */\n      callvalue\n        /* \"Contracts/Fund.sol\":155:183  receiver.transfer(msg.value) */\n      swap1\n      dup2\n      iszero\n      mul\n      swap1\n      mload(0x40)\n      0x00\n      mload(0x40)\n      dup1\n      dup4\n      sub\n      dup2\n      dup6\n      dup9\n      dup9\n      call\n      swap4\n      pop\n      pop\n      pop\n      pop\n      iszero\n      dup1\n      iszero\n      tag_9\n      jumpi\n      returndatasize\n      0x00\n      dup1\n      returndatacopy\n      revert(0x00, returndatasize)\n    tag_9:\n      pop\n        /* \"Contracts/Fund.sol\":84:191  function sendEther(address payable receiver) public payable {\r... */\n      pop\n      jump\t// out\n        /* \"#utility.yul\":7:162   */\n    tag_11:\n      0x00\n        /* \"#utility.yul\":99:105   */\n      dup2\n        /* \"#utility.yul\":86:106   */\n      calldataload\n        /* \"#utility.yul\":77:106   */\n      swap1\n      pop\n        /* \"#utility.yul\":115:156   */\n      tag_13\n        /* \"#utility.yul\":150:155   */\n      dup2\n        /* \"#utility.yul\":115:156   */\n      tag_14\n      jump\t// in\n    tag_13:\n        /* \"#utility.yul\":67:162   */\n      swap3\n      swap2\n      pop\n      pop\n      jump\t// out\n        /* \"#utility.yul\":168:446   */\n    tag_5:\n      0x00\n        /* \"#utility.yul\":284:286   */\n      0x20\n        /* \"#utility.yul\":272:281   */\n      dup3\n        /* \"#utility.yul\":263:270   */\n      dup5\n        /* \"#utility.yul\":259:282   */\n      sub\n        /* \"#utility.yul\":255:287   */\n      slt\n        /* \"#utility.yul\":252:254   */\n      iszero\n      tag_16\n      jumpi\n        /* \"#utility.yul\":300:301   */\n      0x00\n        /* \"#utility.yul\":297:298   */\n      dup1\n        /* \"#utility.yul\":290:302   */\n      revert\n        /* \"#utility.yul\":252:254   */\n    tag_16:\n        /* \"#utility.yul\":343:344   */\n      0x00\n        /* \"#utility.yul\":368:429   */\n      tag_17\n        /* \"#utility.yul\":421:428   */\n      dup5\n        /* \"#utility.yul\":412:418   */\n      dup3\n        /* \"#utility.yul\":401:410   */\n      dup6\n        /* \"#utility.yul\":397:419   */\n      add\n        /* \"#utility.yul\":368:429   */\n      tag_11\n      jump\t// in\n    tag_17:\n        /* \"#utility.yul\":358:429   */\n      swap2\n      pop\n        /* \"#utility.yul\":314:439   */\n      pop\n        /* \"#utility.yul\":242:446   */\n      swap3\n      swap2\n      pop\n      pop\n      jump\t// out\n        /* \"#utility.yul\":452:556   */\n    tag_18:\n      0x00\n        /* \"#utility.yul\":526:550   */\n      tag_20\n        /* \"#utility.yul\":544:549   */\n      dup3\n        /* \"#utility.yul\":526:550   */\n      tag_21\n      jump\t// in\n    tag_20:\n        /* \"#utility.yul\":515:550   */\n      swap1\n      pop\n        /* \"#utility.yul\":505:556   */\n      swap2\n      swap1\n      pop\n      jump\t// out\n        /* \"#utility.yul\":562:688   */\n    tag_21:\n      0x00\n        /* \"#utility.yul\":639:681   */\n      0xffffffffffffffffffffffffffffffffffffffff\n        /* \"#utility.yul\":632:637   */\n      dup3\n        /* \"#utility.yul\":628:682   */\n      and\n        /* \"#utility.yul\":617:682   */\n      swap1\n      pop\n        /* \"#utility.yul\":607:688   */\n      swap2\n      swap1\n      pop\n      jump\t// out\n        /* \"#utility.yul\":694:832   */\n    tag_14:\n        /* \"#utility.yul\":775:807   */\n      tag_24\n        /* \"#utility.yul\":801:806   */\n      dup2\n        /* \"#utility.yul\":775:807   */\n      tag_18\n      jump\t// in\n    tag_24:\n        /* \"#utility.yul\":768:773   */\n      dup2\n        /* \"#utility.yul\":765:808   */\n      eq\n        /* \"#utility.yul\":755:757   */\n      tag_25\n      jumpi\n        /* \"#utility.yul\":822:823   */\n      0x00\n        /* \"#utility.yul\":819:820   */\n      dup1\n        /* \"#utility.yul\":812:824   */\n      revert\n        /* \"#utility.yul\":755:757   */\n    tag_25:\n        /* \"#utility.yul\":745:832   */\n      pop\n      jump\t// out\n\n    auxdata: 0xa2646970667358221220020684daf92caf3fb95850c34317cbd5b1ac627aa37acb15e118385db08bae2164736f6c63430008010033\n}\n",
				"bytecode": {
					"linkReferences": {},
					"object": "608060405234801561001057600080fd5b50610146806100206000396000f3fe60806040526004361061001e5760003560e01c806348c981e214610023575b600080fd5b61003d6004803603810190610038919061009e565b61003f565b005b8073ffffffffffffffffffffffffffffffffffffffff166108fc349081150290604051600060405180830381858888f19350505050158015610085573d6000803e3d6000fd5b5050565b600081359050610098816100f9565b92915050565b6000602082840312156100b057600080fd5b60006100be84828501610089565b91505092915050565b60006100d2826100d9565b9050919050565b600073ffffffffffffffffffffffffffffffffffffffff82169050919050565b610102816100c7565b811461010d57600080fd5b5056fea2646970667358221220020684daf92caf3fb95850c34317cbd5b1ac627aa37acb15e118385db08bae2164736f6c63430008010033",
					"opcodes": "PUSH1 0x80 PUSH1 0x40 MSTORE CALLVALUE DUP1 ISZERO PUSH2 0x10 JUMPI PUSH1 0x0 DUP1 REVERT JUMPDEST POP PUSH2 0x146 DUP1 PUSH2 0x20 PUSH1 0x0 CODECOPY PUSH1 0x0 RETURN INVALID PUSH1 0x80 PUSH1 0x40 MSTORE PUSH1 0x4 CALLDATASIZE LT PUSH2 0x1E JUMPI PUSH1 0x0 CALLDATALOAD PUSH1 0xE0 SHR DUP1 PUSH4 0x48C981E2 EQ PUSH2 0x23 JUMPI JUMPDEST PUSH1 0x0 DUP1 REVERT JUMPDEST PUSH2 0x3D PUSH1 0x4 DUP1 CALLDATASIZE SUB DUP2 ADD SWAP1 PUSH2 0x38 SWAP2 SWAP1 PUSH2 0x9E JUMP JUMPDEST PUSH2 0x3F JUMP JUMPDEST STOP JUMPDEST DUP1 PUSH20 0xFFFFFFFFFFFFFFFFFFFFFFFFFFFFFFFFFFFFFFFF AND PUSH2 0x8FC CALLVALUE SWAP1 DUP2 ISZERO MUL SWAP1 PUSH1 0x40 MLOAD PUSH1 0x0 PUSH1 0x40 MLOAD DUP1 DUP4 SUB DUP2 DUP6 DUP9 DUP9 CALL SWAP4 POP POP POP POP ISZERO DUP1 ISZERO PUSH2 0x85 JUMPI RETURNDATASIZE PUSH1 0x0 DUP1 RETURNDATACOPY RETURNDATASIZE PUSH1 0x0 REVERT JUMPDEST POP POP JUMP JUMPDEST PUSH1 0x0 DUP2 CALLDATALOAD SWAP1 POP PUSH2 0x98 DUP2 PUSH2 0xF9 JUMP JUMPDEST SWAP3 SWAP2 POP POP JUMP JUMPDEST PUSH1 0x0 PUSH1 0x20 DUP3 DUP5 SUB SLT ISZERO PUSH2 0xB0 JUMPI PUSH1 0x0 DUP1 REVERT JUMPDEST PUSH1 0x0 PUSH2 0xBE DUP5 DUP3 DUP6 ADD PUSH2 0x89 JUMP JUMPDEST SWAP2 POP POP SWAP3 SWAP2 POP POP JUMP JUMPDEST PUSH1 0x0 PUSH2 0xD2 DUP3 PUSH2 0xD9 JUMP JUMPDEST SWAP1 POP SWAP2 SWAP1 POP JUMP JUMPDEST PUSH1 0x0 PUSH20 0xFFFFFFFFFFFFFFFFFFFFFFFFFFFFFFFFFFFFFFFF DUP3 AND SWAP1 POP SWAP2 SWAP1 POP JUMP JUMPDEST PUSH2 0x102 DUP2 PUSH2 0xC7 JUMP JUMPDEST DUP2 EQ PUSH2 0x10D JUMPI PUSH1 0x0 DUP1 REVERT JUMPDEST POP JUMP INVALID LOG2 PUSH5 0x6970667358 0x22 SLT KECCAK256 MUL MOD DUP5 0xDA 0xF9 0x2C 0xAF EXTCODEHASH 0xB9 PC POP 0xC3 NUMBER OR 0xCB 0xD5 0xB1 0xAC PUSH3 0x7AA37A 0xCB ISZERO 0xE1 XOR CODESIZE 0x5D 0xB0 DUP12 0xAE 0x21 PUSH5 0x736F6C6343 STOP ADDMOD ADD STOP CALLER "
				},
				"gasEstimates": {
					"creation": {
						"codeDepositCost": "65200",
						"executionCost": "117",
						"totalCost": "65317"
					},
					"external": {
						"sendEther(address)": "infinite"
					}
				},
				"methodIdentifiers": {
					"sendEther(address)": "48c981e2"
				}
			},
			"storageLayout": {
				"storage": [],
				"types": null
			},
			"userdoc": {
				"kind": "user",
				"methods": {},
				"version": 1
			}
		}
	}
}