{
	"Contracts/Identity.sol": {
		"Identity": {
			"abi": [
				{
					"inputs": [
						{
							"internalType": "uint256",
							"name": "_idNumber",
							"type": "uint256"
						},
						{
							"internalType": "bool",
							"name": "_isWorking",
							"type": "bool"
						},
						{
							"internalType": "string",
							"name": "_name",
							"type": "string"
						}
					],
					"stateMutability": "nonpayable",
					"type": "constructor"
				},
				{
					"inputs": [],
					"name": "idNumber",
					"outputs": [
						{
							"internalType": "uint256",
							"name": "",
							"type": "uint256"
						}
					],
					"stateMutability": "view",
					"type": "function"
				},
				{
					"inputs": [],
					"name": "isWorking",
					"outputs": [
						{
							"internalType": "bool",
							"name": "",
							"type": "bool"
						}
					],
					"stateMutability": "view",
					"type": "function"
				},
				{
					"inputs": [],
					"name": "name",
					"outputs": [
						{
							"internalType": "string",
							"name": "",
							"type": "string"
						}
					],
					"stateMutability": "view",
					"type": "function"
				},
				{
					"inputs": [],
					"name": "wallet",
					"outputs": [
						{
							"internalType": "address",
							"name": "",
							"type": "address"
						}
					],
					"stateMutability": "view",
					"type": "function"
				}
			],
			"devdoc": {
				"kind": "dev",
				"methods": {},
				"version": 1
			},
			"evm": {
				"assembly": "    /* \"Contracts/Identity.sol\":61:389  contract Identity{\r... */\n  mstore(0x40, 0x80)\n    /* \"Contracts/Identity.sol\":196:386  constructor(uint _idNumber, bool _isWorking, string memory _name){\r... */\n  callvalue\n  dup1\n  iszero\n  tag_1\n  jumpi\n  0x00\n  dup1\n  revert\ntag_1:\n  pop\n  mload(0x40)\n  sub(codesize, bytecodeSize)\n  dup1\n  bytecodeSize\n  dup4\n  codecopy\n  dup2\n  dup2\n  add\n  0x40\n  mstore\n  dup2\n  add\n  swap1\n  tag_2\n  swap2\n  swap1\n  tag_3\n  jump\t// in\ntag_2:\n    /* \"Contracts/Identity.sol\":283:292  _idNumber */\n  dup3\n    /* \"Contracts/Identity.sol\":272:280  idNumber */\n  0x00\n    /* \"Contracts/Identity.sol\":272:292  idNumber = _idNumber */\n  dup2\n  swap1\n  sstore\n  pop\n    /* \"Contracts/Identity.sol\":315:325  _isWorking */\n  dup2\n    /* \"Contracts/Identity.sol\":303:312  isWorking */\n  0x01\n  0x00\n    /* \"Contracts/Identity.sol\":303:325  isWorking = _isWorking */\n  0x0100\n  exp\n  dup2\n  sload\n  dup2\n  0xff\n  mul\n  not\n  and\n  swap1\n  dup4\n  iszero\n  iszero\n  mul\n  or\n  swap1\n  sstore\n  pop\n    /* \"Contracts/Identity.sol\":343:348  _name */\n  dup1\n    /* \"Contracts/Identity.sol\":336:340  name */\n  0x02\n    /* \"Contracts/Identity.sol\":336:348  name = _name */\n  swap1\n  dup1\n  mload\n  swap1\n  0x20\n  add\n  swap1\n  tag_6\n  swap3\n  swap2\n  swap1\n  tag_7\n  jump\t// in\ntag_6:\n  pop\n    /* \"Contracts/Identity.sol\":368:378  msg.sender */\n  caller\n    /* \"Contracts/Identity.sol\":359:365  wallet */\n  0x03\n  0x00\n    /* \"Contracts/Identity.sol\":359:378  wallet = msg.sender */\n  0x0100\n  exp\n  dup2\n  sload\n  dup2\n  0xffffffffffffffffffffffffffffffffffffffff\n  mul\n  not\n  and\n  swap1\n  dup4\n  0xffffffffffffffffffffffffffffffffffffffff\n  and\n  mul\n  or\n  swap1\n  sstore\n  pop\n    /* \"Contracts/Identity.sol\":196:386  constructor(uint _idNumber, bool _isWorking, string memory _name){\r... */\n  pop\n  pop\n  pop\n    /* \"Contracts/Identity.sol\":61:389  contract Identity{\r... */\n  jump(tag_8)\ntag_7:\n  dup3\n  dup1\n  sload\n  tag_9\n  swap1\n  tag_10\n  jump\t// in\ntag_9:\n  swap1\n  0x00\n  mstore\n  keccak256(0x00, 0x20)\n  swap1\n  0x1f\n  add\n  0x20\n  swap1\n  div\n  dup2\n  add\n  swap3\n  dup3\n  tag_12\n  jumpi\n  0x00\n  dup6\n  sstore\n  jump(tag_11)\ntag_12:\n  dup3\n  0x1f\n  lt\n  tag_13\n  jumpi\n  dup1\n  mload\n  not(0xff)\n  and\n  dup4\n  dup1\n  add\n  or\n  dup6\n  sstore\n  jump(tag_11)\ntag_13:\n  dup3\n  dup1\n  add\n  0x01\n  add\n  dup6\n  sstore\n  dup3\n  iszero\n  tag_11\n  jumpi\n  swap2\n  dup3\n  add\ntag_14:\n  dup3\n  dup2\n  gt\n  iszero\n  tag_15\n  jumpi\n  dup3\n  mload\n  dup3\n  sstore\n  swap2\n  0x20\n  add\n  swap2\n  swap1\n  0x01\n  add\n  swap1\n  jump(tag_14)\ntag_15:\ntag_11:\n  pop\n  swap1\n  pop\n  tag_16\n  swap2\n  swap1\n  tag_17\n  jump\t// in\ntag_16:\n  pop\n  swap1\n  jump\t// out\ntag_17:\ntag_18:\n  dup1\n  dup3\n  gt\n  iszero\n  tag_19\n  jumpi\n  0x00\n  dup2\n  0x00\n  swap1\n  sstore\n  pop\n  0x01\n  add\n  jump(tag_18)\ntag_19:\n  pop\n  swap1\n  jump\t// out\n    /* \"#utility.yul\":7:361   */\ntag_21:\n  0x00\n    /* \"#utility.yul\":121:187   */\n  tag_23\n    /* \"#utility.yul\":137:186   */\n  tag_24\n    /* \"#utility.yul\":179:185   */\n  dup5\n    /* \"#utility.yul\":137:186   */\n  tag_25\n  jump\t// in\ntag_24:\n    /* \"#utility.yul\":121:187   */\n  tag_26\n  jump\t// in\ntag_23:\n    /* \"#utility.yul\":112:187   */\n  swap1\n  pop\n    /* \"#utility.yul\":210:216   */\n  dup3\n    /* \"#utility.yul\":203:208   */\n  dup2\n    /* \"#utility.yul\":196:217   */\n  mstore\n    /* \"#utility.yul\":248:252   */\n  0x20\n    /* \"#utility.yul\":241:246   */\n  dup2\n    /* \"#utility.yul\":237:253   */\n  add\n    /* \"#utility.yul\":286:289   */\n  dup5\n    /* \"#utility.yul\":277:283   */\n  dup5\n    /* \"#utility.yul\":272:275   */\n  dup5\n    /* \"#utility.yul\":268:284   */\n  add\n    /* \"#utility.yul\":265:290   */\n  gt\n    /* \"#utility.yul\":262:264   */\n  iszero\n  tag_27\n  jumpi\n    /* \"#utility.yul\":303:304   */\n  0x00\n    /* \"#utility.yul\":300:301   */\n  dup1\n    /* \"#utility.yul\":293:305   */\n  revert\n    /* \"#utility.yul\":262:264   */\ntag_27:\n    /* \"#utility.yul\":316:355   */\n  tag_28\n    /* \"#utility.yul\":348:354   */\n  dup5\n    /* \"#utility.yul\":343:346   */\n  dup3\n    /* \"#utility.yul\":338:341   */\n  dup6\n    /* \"#utility.yul\":316:355   */\n  tag_29\n  jump\t// in\ntag_28:\n    /* \"#utility.yul\":102:361   */\n  pop\n  swap4\n  swap3\n  pop\n  pop\n  pop\n  jump\t// out\n    /* \"#utility.yul\":367:504   */\ntag_30:\n  0x00\n    /* \"#utility.yul\":452:458   */\n  dup2\n    /* \"#utility.yul\":446:459   */\n  mload\n    /* \"#utility.yul\":437:459   */\n  swap1\n  pop\n    /* \"#utility.yul\":468:498   */\n  tag_32\n    /* \"#utility.yul\":492:497   */\n  dup2\n    /* \"#utility.yul\":468:498   */\n  tag_33\n  jump\t// in\ntag_32:\n    /* \"#utility.yul\":427:504   */\n  swap3\n  swap2\n  pop\n  pop\n  jump\t// out\n    /* \"#utility.yul\":524:812   */\ntag_34:\n  0x00\n    /* \"#utility.yul\":640:643   */\n  dup3\n    /* \"#utility.yul\":633:637   */\n  0x1f\n    /* \"#utility.yul\":625:631   */\n  dup4\n    /* \"#utility.yul\":621:638   */\n  add\n    /* \"#utility.yul\":617:644   */\n  slt\n    /* \"#utility.yul\":607:609   */\n  tag_36\n  jumpi\n    /* \"#utility.yul\":658:659   */\n  0x00\n    /* \"#utility.yul\":655:656   */\n  dup1\n    /* \"#utility.yul\":648:660   */\n  revert\n    /* \"#utility.yul\":607:609   */\ntag_36:\n    /* \"#utility.yul\":691:697   */\n  dup2\n    /* \"#utility.yul\":685:698   */\n  mload\n    /* \"#utility.yul\":716:806   */\n  tag_37\n    /* \"#utility.yul\":802:805   */\n  dup5\n    /* \"#utility.yul\":794:800   */\n  dup3\n    /* \"#utility.yul\":787:791   */\n  0x20\n    /* \"#utility.yul\":779:785   */\n  dup7\n    /* \"#utility.yul\":775:792   */\n  add\n    /* \"#utility.yul\":716:806   */\n  tag_21\n  jump\t// in\ntag_37:\n    /* \"#utility.yul\":707:806   */\n  swap2\n  pop\n    /* \"#utility.yul\":597:812   */\n  pop\n  swap3\n  swap2\n  pop\n  pop\n  jump\t// out\n    /* \"#utility.yul\":818:961   */\ntag_38:\n  0x00\n    /* \"#utility.yul\":906:912   */\n  dup2\n    /* \"#utility.yul\":900:913   */\n  mload\n    /* \"#utility.yul\":891:913   */\n  swap1\n  pop\n    /* \"#utility.yul\":922:955   */\n  tag_40\n    /* \"#utility.yul\":949:954   */\n  dup2\n    /* \"#utility.yul\":922:955   */\n  tag_41\n  jump\t// in\ntag_40:\n    /* \"#utility.yul\":881:961   */\n  swap3\n  swap2\n  pop\n  pop\n  jump\t// out\n    /* \"#utility.yul\":967:1663   */\ntag_3:\n  0x00\n  dup1\n  0x00\n    /* \"#utility.yul\":1127:1129   */\n  0x60\n    /* \"#utility.yul\":1115:1124   */\n  dup5\n    /* \"#utility.yul\":1106:1113   */\n  dup7\n    /* \"#utility.yul\":1102:1125   */\n  sub\n    /* \"#utility.yul\":1098:1130   */\n  slt\n    /* \"#utility.yul\":1095:1097   */\n  iszero\n  tag_43\n  jumpi\n    /* \"#utility.yul\":1143:1144   */\n  0x00\n    /* \"#utility.yul\":1140:1141   */\n  dup1\n    /* \"#utility.yul\":1133:1145   */\n  revert\n    /* \"#utility.yul\":1095:1097   */\ntag_43:\n    /* \"#utility.yul\":1186:1187   */\n  0x00\n    /* \"#utility.yul\":1211:1275   */\n  tag_44\n    /* \"#utility.yul\":1267:1274   */\n  dup7\n    /* \"#utility.yul\":1258:1264   */\n  dup3\n    /* \"#utility.yul\":1247:1256   */\n  dup8\n    /* \"#utility.yul\":1243:1265   */\n  add\n    /* \"#utility.yul\":1211:1275   */\n  tag_38\n  jump\t// in\ntag_44:\n    /* \"#utility.yul\":1201:1275   */\n  swap4\n  pop\n    /* \"#utility.yul\":1157:1285   */\n  pop\n    /* \"#utility.yul\":1324:1326   */\n  0x20\n    /* \"#utility.yul\":1350:1411   */\n  tag_45\n    /* \"#utility.yul\":1403:1410   */\n  dup7\n    /* \"#utility.yul\":1394:1400   */\n  dup3\n    /* \"#utility.yul\":1383:1392   */\n  dup8\n    /* \"#utility.yul\":1379:1401   */\n  add\n    /* \"#utility.yul\":1350:1411   */\n  tag_30\n  jump\t// in\ntag_45:\n    /* \"#utility.yul\":1340:1411   */\n  swap3\n  pop\n    /* \"#utility.yul\":1295:1421   */\n  pop\n    /* \"#utility.yul\":1481:1483   */\n  0x40\n    /* \"#utility.yul\":1470:1479   */\n  dup5\n    /* \"#utility.yul\":1466:1484   */\n  add\n    /* \"#utility.yul\":1460:1485   */\n  mload\n    /* \"#utility.yul\":1512:1530   */\n  0xffffffffffffffff\n    /* \"#utility.yul\":1504:1510   */\n  dup2\n    /* \"#utility.yul\":1501:1531   */\n  gt\n    /* \"#utility.yul\":1498:1500   */\n  iszero\n  tag_46\n  jumpi\n    /* \"#utility.yul\":1544:1545   */\n  0x00\n    /* \"#utility.yul\":1541:1542   */\n  dup1\n    /* \"#utility.yul\":1534:1546   */\n  revert\n    /* \"#utility.yul\":1498:1500   */\ntag_46:\n    /* \"#utility.yul\":1572:1646   */\n  tag_47\n    /* \"#utility.yul\":1638:1645   */\n  dup7\n    /* \"#utility.yul\":1629:1635   */\n  dup3\n    /* \"#utility.yul\":1618:1627   */\n  dup8\n    /* \"#utility.yul\":1614:1636   */\n  add\n    /* \"#utility.yul\":1572:1646   */\n  tag_34\n  jump\t// in\ntag_47:\n    /* \"#utility.yul\":1562:1646   */\n  swap2\n  pop\n    /* \"#utility.yul\":1431:1656   */\n  pop\n    /* \"#utility.yul\":1085:1663   */\n  swap3\n  pop\n  swap3\n  pop\n  swap3\n  jump\t// out\n    /* \"#utility.yul\":1669:1798   */\ntag_26:\n  0x00\n    /* \"#utility.yul\":1730:1750   */\n  tag_49\n  tag_50\n  jump\t// in\ntag_49:\n    /* \"#utility.yul\":1720:1750   */\n  swap1\n  pop\n    /* \"#utility.yul\":1759:1792   */\n  tag_51\n    /* \"#utility.yul\":1787:1791   */\n  dup3\n    /* \"#utility.yul\":1779:1785   */\n  dup3\n    /* \"#utility.yul\":1759:1792   */\n  tag_52\n  jump\t// in\ntag_51:\n    /* \"#utility.yul\":1710:1798   */\n  swap2\n  swap1\n  pop\n  jump\t// out\n    /* \"#utility.yul\":1804:1879   */\ntag_50:\n  0x00\n    /* \"#utility.yul\":1870:1872   */\n  0x40\n    /* \"#utility.yul\":1864:1873   */\n  mload\n    /* \"#utility.yul\":1854:1873   */\n  swap1\n  pop\n    /* \"#utility.yul\":1844:1879   */\n  swap1\n  jump\t// out\n    /* \"#utility.yul\":1885:2193   */\ntag_25:\n  0x00\n    /* \"#utility.yul\":2037:2055   */\n  0xffffffffffffffff\n    /* \"#utility.yul\":2029:2035   */\n  dup3\n    /* \"#utility.yul\":2026:2056   */\n  gt\n    /* \"#utility.yul\":2023:2025   */\n  iszero\n  tag_55\n  jumpi\n    /* \"#utility.yul\":2059:2077   */\n  tag_56\n  tag_57\n  jump\t// in\ntag_56:\n    /* \"#utility.yul\":2023:2025   */\ntag_55:\n    /* \"#utility.yul\":2097:2126   */\n  tag_58\n    /* \"#utility.yul\":2119:2125   */\n  dup3\n    /* \"#utility.yul\":2097:2126   */\n  tag_59\n  jump\t// in\ntag_58:\n    /* \"#utility.yul\":2089:2126   */\n  swap1\n  pop\n    /* \"#utility.yul\":2181:2185   */\n  0x20\n    /* \"#utility.yul\":2175:2179   */\n  dup2\n    /* \"#utility.yul\":2171:2186   */\n  add\n    /* \"#utility.yul\":2163:2186   */\n  swap1\n  pop\n    /* \"#utility.yul\":1952:2193   */\n  swap2\n  swap1\n  pop\n  jump\t// out\n    /* \"#utility.yul\":2199:2289   */\ntag_60:\n  0x00\n    /* \"#utility.yul\":2276:2281   */\n  dup2\n    /* \"#utility.yul\":2269:2282   */\n  iszero\n    /* \"#utility.yul\":2262:2283   */\n  iszero\n    /* \"#utility.yul\":2251:2283   */\n  swap1\n  pop\n    /* \"#utility.yul\":2241:2289   */\n  swap2\n  swap1\n  pop\n  jump\t// out\n    /* \"#utility.yul\":2295:2372   */\ntag_62:\n  0x00\n    /* \"#utility.yul\":2361:2366   */\n  dup2\n    /* \"#utility.yul\":2350:2366   */\n  swap1\n  pop\n    /* \"#utility.yul\":2340:2372   */\n  swap2\n  swap1\n  pop\n  jump\t// out\n    /* \"#utility.yul\":2378:2685   */\ntag_29:\n    /* \"#utility.yul\":2446:2447   */\n  0x00\n    /* \"#utility.yul\":2456:2569   */\ntag_65:\n    /* \"#utility.yul\":2470:2476   */\n  dup4\n    /* \"#utility.yul\":2467:2468   */\n  dup2\n    /* \"#utility.yul\":2464:2477   */\n  lt\n    /* \"#utility.yul\":2456:2569   */\n  iszero\n  tag_67\n  jumpi\n    /* \"#utility.yul\":2555:2556   */\n  dup1\n    /* \"#utility.yul\":2550:2553   */\n  dup3\n    /* \"#utility.yul\":2546:2557   */\n  add\n    /* \"#utility.yul\":2540:2558   */\n  mload\n    /* \"#utility.yul\":2536:2537   */\n  dup2\n    /* \"#utility.yul\":2531:2534   */\n  dup5\n    /* \"#utility.yul\":2527:2538   */\n  add\n    /* \"#utility.yul\":2520:2559   */\n  mstore\n    /* \"#utility.yul\":2492:2494   */\n  0x20\n    /* \"#utility.yul\":2489:2490   */\n  dup2\n    /* \"#utility.yul\":2485:2495   */\n  add\n    /* \"#utility.yul\":2480:2495   */\n  swap1\n  pop\n    /* \"#utility.yul\":2456:2569   */\n  jump(tag_65)\ntag_67:\n    /* \"#utility.yul\":2587:2593   */\n  dup4\n    /* \"#utility.yul\":2584:2585   */\n  dup2\n    /* \"#utility.yul\":2581:2594   */\n  gt\n    /* \"#utility.yul\":2578:2580   */\n  iszero\n  tag_68\n  jumpi\n    /* \"#utility.yul\":2667:2668   */\n  0x00\n    /* \"#utility.yul\":2658:2664   */\n  dup5\n    /* \"#utility.yul\":2653:2656   */\n  dup5\n    /* \"#utility.yul\":2649:2665   */\n  add\n    /* \"#utility.yul\":2642:2669   */\n  mstore\n    /* \"#utility.yul\":2578:2580   */\ntag_68:\n    /* \"#utility.yul\":2427:2685   */\n  pop\n  pop\n  pop\n  pop\n  jump\t// out\n    /* \"#utility.yul\":2691:3011   */\ntag_10:\n  0x00\n    /* \"#utility.yul\":2772:2773   */\n  0x02\n    /* \"#utility.yul\":2766:2770   */\n  dup3\n    /* \"#utility.yul\":2762:2774   */\n  div\n    /* \"#utility.yul\":2752:2774   */\n  swap1\n  pop\n    /* \"#utility.yul\":2819:2820   */\n  0x01\n    /* \"#utility.yul\":2813:2817   */\n  dup3\n    /* \"#utility.yul\":2809:2821   */\n  and\n    /* \"#utility.yul\":2840:2858   */\n  dup1\n    /* \"#utility.yul\":2830:2832   */\n  tag_70\n  jumpi\n    /* \"#utility.yul\":2896:2900   */\n  0x7f\n    /* \"#utility.yul\":2888:2894   */\n  dup3\n    /* \"#utility.yul\":2884:2901   */\n  and\n    /* \"#utility.yul\":2874:2901   */\n  swap2\n  pop\n    /* \"#utility.yul\":2830:2832   */\ntag_70:\n    /* \"#utility.yul\":2958:2960   */\n  0x20\n    /* \"#utility.yul\":2950:2956   */\n  dup3\n    /* \"#utility.yul\":2947:2961   */\n  lt\n    /* \"#utility.yul\":2927:2945   */\n  dup2\n    /* \"#utility.yul\":2924:2962   */\n  eq\n    /* \"#utility.yul\":2921:2923   */\n  iszero\n  tag_71\n  jumpi\n    /* \"#utility.yul\":2977:2995   */\n  tag_72\n  tag_73\n  jump\t// in\ntag_72:\n    /* \"#utility.yul\":2921:2923   */\ntag_71:\n    /* \"#utility.yul\":2742:3011   */\n  pop\n  swap2\n  swap1\n  pop\n  jump\t// out\n    /* \"#utility.yul\":3017:3298   */\ntag_52:\n    /* \"#utility.yul\":3100:3127   */\n  tag_75\n    /* \"#utility.yul\":3122:3126   */\n  dup3\n    /* \"#utility.yul\":3100:3127   */\n  tag_59\n  jump\t// in\ntag_75:\n    /* \"#utility.yul\":3092:3098   */\n  dup2\n    /* \"#utility.yul\":3088:3128   */\n  add\n    /* \"#utility.yul\":3230:3236   */\n  dup2\n    /* \"#utility.yul\":3218:3228   */\n  dup2\n    /* \"#utility.yul\":3215:3237   */\n  lt\n    /* \"#utility.yul\":3194:3212   */\n  0xffffffffffffffff\n    /* \"#utility.yul\":3182:3192   */\n  dup3\n    /* \"#utility.yul\":3179:3213   */\n  gt\n    /* \"#utility.yul\":3176:3238   */\n  or\n    /* \"#utility.yul\":3173:3175   */\n  iszero\n  tag_76\n  jumpi\n    /* \"#utility.yul\":3241:3259   */\n  tag_77\n  tag_57\n  jump\t// in\ntag_77:\n    /* \"#utility.yul\":3173:3175   */\ntag_76:\n    /* \"#utility.yul\":3281:3291   */\n  dup1\n    /* \"#utility.yul\":3277:3279   */\n  0x40\n    /* \"#utility.yul\":3270:3292   */\n  mstore\n    /* \"#utility.yul\":3060:3298   */\n  pop\n  pop\n  pop\n  jump\t// out\n    /* \"#utility.yul\":3304:3484   */\ntag_73:\n    /* \"#utility.yul\":3352:3429   */\n  0x4e487b7100000000000000000000000000000000000000000000000000000000\n    /* \"#utility.yul\":3349:3350   */\n  0x00\n    /* \"#utility.yul\":3342:3430   */\n  mstore\n    /* \"#utility.yul\":3449:3453   */\n  0x22\n    /* \"#utility.yul\":3446:3447   */\n  0x04\n    /* \"#utility.yul\":3439:3454   */\n  mstore\n    /* \"#utility.yul\":3473:3477   */\n  0x24\n    /* \"#utility.yul\":3470:3471   */\n  0x00\n    /* \"#utility.yul\":3463:3478   */\n  revert\n    /* \"#utility.yul\":3490:3670   */\ntag_57:\n    /* \"#utility.yul\":3538:3615   */\n  0x4e487b7100000000000000000000000000000000000000000000000000000000\n    /* \"#utility.yul\":3535:3536   */\n  0x00\n    /* \"#utility.yul\":3528:3616   */\n  mstore\n    /* \"#utility.yul\":3635:3639   */\n  0x41\n    /* \"#utility.yul\":3632:3633   */\n  0x04\n    /* \"#utility.yul\":3625:3640   */\n  mstore\n    /* \"#utility.yul\":3659:3663   */\n  0x24\n    /* \"#utility.yul\":3656:3657   */\n  0x00\n    /* \"#utility.yul\":3649:3664   */\n  revert\n    /* \"#utility.yul\":3676:3778   */\ntag_59:\n  0x00\n    /* \"#utility.yul\":3768:3770   */\n  0x1f\n    /* \"#utility.yul\":3764:3771   */\n  not\n    /* \"#utility.yul\":3759:3761   */\n  0x1f\n    /* \"#utility.yul\":3752:3757   */\n  dup4\n    /* \"#utility.yul\":3748:3762   */\n  add\n    /* \"#utility.yul\":3744:3772   */\n  and\n    /* \"#utility.yul\":3734:3772   */\n  swap1\n  pop\n    /* \"#utility.yul\":3724:3778   */\n  swap2\n  swap1\n  pop\n  jump\t// out\n    /* \"#utility.yul\":3784:3900   */\ntag_33:\n    /* \"#utility.yul\":3854:3875   */\n  tag_82\n    /* \"#utility.yul\":3869:3874   */\n  dup2\n    /* \"#utility.yul\":3854:3875   */\n  tag_60\n  jump\t// in\ntag_82:\n    /* \"#utility.yul\":3847:3852   */\n  dup2\n    /* \"#utility.yul\":3844:3876   */\n  eq\n    /* \"#utility.yul\":3834:3836   */\n  tag_83\n  jumpi\n    /* \"#utility.yul\":3890:3891   */\n  0x00\n    /* \"#utility.yul\":3887:3888   */\n  dup1\n    /* \"#utility.yul\":3880:3892   */\n  revert\n    /* \"#utility.yul\":3834:3836   */\ntag_83:\n    /* \"#utility.yul\":3824:3900   */\n  pop\n  jump\t// out\n    /* \"#utility.yul\":3906:4028   */\ntag_41:\n    /* \"#utility.yul\":3979:4003   */\n  tag_85\n    /* \"#utility.yul\":3997:4002   */\n  dup2\n    /* \"#utility.yul\":3979:4003   */\n  tag_62\n  jump\t// in\ntag_85:\n    /* \"#utility.yul\":3972:3977   */\n  dup2\n    /* \"#utility.yul\":3969:4004   */\n  eq\n    /* \"#utility.yul\":3959:3961   */\n  tag_86\n  jumpi\n    /* \"#utility.yul\":4018:4019   */\n  0x00\n    /* \"#utility.yul\":4015:4016   */\n  dup1\n    /* \"#utility.yul\":4008:4020   */\n  revert\n    /* \"#utility.yul\":3959:3961   */\ntag_86:\n    /* \"#utility.yul\":3949:4028   */\n  pop\n  jump\t// out\n    /* \"Contracts/Identity.sol\":61:389  contract Identity{\r... */\ntag_8:\n  dataSize(sub_0)\n  dup1\n  dataOffset(sub_0)\n  0x00\n  codecopy\n  0x00\n  return\nstop\n\nsub_0: assembly {\n        /* \"Contracts/Identity.sol\":61:389  contract Identity{\r... */\n      mstore(0x40, 0x80)\n      callvalue\n      dup1\n      iszero\n      tag_1\n      jumpi\n      0x00\n      dup1\n      revert\n    tag_1:\n      pop\n      jumpi(tag_2, lt(calldatasize, 0x04))\n      shr(0xe0, calldataload(0x00))\n      dup1\n      0x06fdde03\n      eq\n      tag_3\n      jumpi\n      dup1\n      0x099aea0a\n      eq\n      tag_4\n      jumpi\n      dup1\n      0x3f83ea3b\n      eq\n      tag_5\n      jumpi\n      dup1\n      0x521eb273\n      eq\n      tag_6\n      jumpi\n    tag_2:\n      0x00\n      dup1\n      revert\n        /* \"Contracts/Identity.sol\":140:158  string public name */\n    tag_3:\n      tag_7\n      tag_8\n      jump\t// in\n    tag_7:\n      mload(0x40)\n      tag_9\n      swap2\n      swap1\n      tag_10\n      jump\t// in\n    tag_9:\n      mload(0x40)\n      dup1\n      swap2\n      sub\n      swap1\n      return\n        /* \"Contracts/Identity.sol\":112:133  bool public isWorking */\n    tag_4:\n      tag_11\n      tag_12\n      jump\t// in\n    tag_11:\n      mload(0x40)\n      tag_13\n      swap2\n      swap1\n      tag_14\n      jump\t// in\n    tag_13:\n      mload(0x40)\n      dup1\n      swap2\n      sub\n      swap1\n      return\n        /* \"Contracts/Identity.sol\":85:105  uint public idNumber */\n    tag_5:\n      tag_15\n      tag_16\n      jump\t// in\n    tag_15:\n      mload(0x40)\n      tag_17\n      swap2\n      swap1\n      tag_18\n      jump\t// in\n    tag_17:\n      mload(0x40)\n      dup1\n      swap2\n      sub\n      swap1\n      return\n        /* \"Contracts/Identity.sol\":165:187  address public  wallet */\n    tag_6:\n      tag_19\n      tag_20\n      jump\t// in\n    tag_19:\n      mload(0x40)\n      tag_21\n      swap2\n      swap1\n      tag_22\n      jump\t// in\n    tag_21:\n      mload(0x40)\n      dup1\n      swap2\n      sub\n      swap1\n      return\n        /* \"Contracts/Identity.sol\":140:158  string public name */\n    tag_8:\n      0x02\n      dup1\n      sload\n      tag_23\n      swap1\n      tag_24\n      jump\t// in\n    tag_23:\n      dup1\n      0x1f\n      add\n      0x20\n      dup1\n      swap2\n      div\n      mul\n      0x20\n      add\n      mload(0x40)\n      swap1\n      dup2\n      add\n      0x40\n      mstore\n      dup1\n      swap3\n      swap2\n      swap1\n      dup2\n      dup2\n      mstore\n      0x20\n      add\n      dup3\n      dup1\n      sload\n      tag_25\n      swap1\n      tag_24\n      jump\t// in\n    tag_25:\n      dup1\n      iszero\n      tag_26\n      jumpi\n      dup1\n      0x1f\n      lt\n      tag_27\n      jumpi\n      0x0100\n      dup1\n      dup4\n      sload\n      div\n      mul\n      dup4\n      mstore\n      swap2\n      0x20\n      add\n      swap2\n      jump(tag_26)\n    tag_27:\n      dup3\n      add\n      swap2\n      swap1\n      0x00\n      mstore\n      keccak256(0x00, 0x20)\n      swap1\n    tag_28:\n      dup2\n      sload\n      dup2\n      mstore\n      swap1\n      0x01\n      add\n      swap1\n      0x20\n      add\n      dup1\n      dup4\n      gt\n      tag_28\n      jumpi\n      dup3\n      swap1\n      sub\n      0x1f\n      and\n      dup3\n      add\n      swap2\n    tag_26:\n      pop\n      pop\n      pop\n      pop\n      pop\n      dup2\n      jump\t// out\n        /* \"Contracts/Identity.sol\":112:133  bool public isWorking */\n    tag_12:\n      0x01\n      0x00\n      swap1\n      sload\n      swap1\n      0x0100\n      exp\n      swap1\n      div\n      0xff\n      and\n      dup2\n      jump\t// out\n        /* \"Contracts/Identity.sol\":85:105  uint public idNumber */\n    tag_16:\n      sload(0x00)\n      dup2\n      jump\t// out\n        /* \"Contracts/Identity.sol\":165:187  address public  wallet */\n    tag_20:\n      0x03\n      0x00\n      swap1\n      sload\n      swap1\n      0x0100\n      exp\n      swap1\n      div\n      0xffffffffffffffffffffffffffffffffffffffff\n      and\n      dup2\n      jump\t// out\n        /* \"#utility.yul\":7:125   */\n    tag_30:\n        /* \"#utility.yul\":94:118   */\n      tag_32\n        /* \"#utility.yul\":112:117   */\n      dup2\n        /* \"#utility.yul\":94:118   */\n      tag_33\n      jump\t// in\n    tag_32:\n        /* \"#utility.yul\":89:92   */\n      dup3\n        /* \"#utility.yul\":82:119   */\n      mstore\n        /* \"#utility.yul\":72:125   */\n      pop\n      pop\n      jump\t// out\n        /* \"#utility.yul\":131:240   */\n    tag_34:\n        /* \"#utility.yul\":212:233   */\n      tag_36\n        /* \"#utility.yul\":227:232   */\n      dup2\n        /* \"#utility.yul\":212:233   */\n      tag_37\n      jump\t// in\n    tag_36:\n        /* \"#utility.yul\":207:210   */\n      dup3\n        /* \"#utility.yul\":200:234   */\n      mstore\n        /* \"#utility.yul\":190:240   */\n      pop\n      pop\n      jump\t// out\n        /* \"#utility.yul\":246:610   */\n    tag_38:\n      0x00\n        /* \"#utility.yul\":362:401   */\n      tag_40\n        /* \"#utility.yul\":395:400   */\n      dup3\n        /* \"#utility.yul\":362:401   */\n      tag_41\n      jump\t// in\n    tag_40:\n        /* \"#utility.yul\":417:488   */\n      tag_42\n        /* \"#utility.yul\":481:487   */\n      dup2\n        /* \"#utility.yul\":476:479   */\n      dup6\n        /* \"#utility.yul\":417:488   */\n      tag_43\n      jump\t// in\n    tag_42:\n        /* \"#utility.yul\":410:488   */\n      swap4\n      pop\n        /* \"#utility.yul\":497:549   */\n      tag_44\n        /* \"#utility.yul\":542:548   */\n      dup2\n        /* \"#utility.yul\":537:540   */\n      dup6\n        /* \"#utility.yul\":530:534   */\n      0x20\n        /* \"#utility.yul\":523:528   */\n      dup7\n        /* \"#utility.yul\":519:535   */\n      add\n        /* \"#utility.yul\":497:549   */\n      tag_45\n      jump\t// in\n    tag_44:\n        /* \"#utility.yul\":574:603   */\n      tag_46\n        /* \"#utility.yul\":596:602   */\n      dup2\n        /* \"#utility.yul\":574:603   */\n      tag_47\n      jump\t// in\n    tag_46:\n        /* \"#utility.yul\":569:572   */\n      dup5\n        /* \"#utility.yul\":565:604   */\n      add\n        /* \"#utility.yul\":558:604   */\n      swap2\n      pop\n        /* \"#utility.yul\":338:610   */\n      pop\n      swap3\n      swap2\n      pop\n      pop\n      jump\t// out\n        /* \"#utility.yul\":616:734   */\n    tag_48:\n        /* \"#utility.yul\":703:727   */\n      tag_50\n        /* \"#utility.yul\":721:726   */\n      dup2\n        /* \"#utility.yul\":703:727   */\n      tag_51\n      jump\t// in\n    tag_50:\n        /* \"#utility.yul\":698:701   */\n      dup3\n        /* \"#utility.yul\":691:728   */\n      mstore\n        /* \"#utility.yul\":681:734   */\n      pop\n      pop\n      jump\t// out\n        /* \"#utility.yul\":740:962   */\n    tag_22:\n      0x00\n        /* \"#utility.yul\":871:873   */\n      0x20\n        /* \"#utility.yul\":860:869   */\n      dup3\n        /* \"#utility.yul\":856:874   */\n      add\n        /* \"#utility.yul\":848:874   */\n      swap1\n      pop\n        /* \"#utility.yul\":884:955   */\n      tag_53\n        /* \"#utility.yul\":952:953   */\n      0x00\n        /* \"#utility.yul\":941:950   */\n      dup4\n        /* \"#utility.yul\":937:954   */\n      add\n        /* \"#utility.yul\":928:934   */\n      dup5\n        /* \"#utility.yul\":884:955   */\n      tag_30\n      jump\t// in\n    tag_53:\n        /* \"#utility.yul\":838:962   */\n      swap3\n      swap2\n      pop\n      pop\n      jump\t// out\n        /* \"#utility.yul\":968:1178   */\n    tag_14:\n      0x00\n        /* \"#utility.yul\":1093:1095   */\n      0x20\n        /* \"#utility.yul\":1082:1091   */\n      dup3\n        /* \"#utility.yul\":1078:1096   */\n      add\n        /* \"#utility.yul\":1070:1096   */\n      swap1\n      pop\n        /* \"#utility.yul\":1106:1171   */\n      tag_55\n        /* \"#utility.yul\":1168:1169   */\n      0x00\n        /* \"#utility.yul\":1157:1166   */\n      dup4\n        /* \"#utility.yul\":1153:1170   */\n      add\n        /* \"#utility.yul\":1144:1150   */\n      dup5\n        /* \"#utility.yul\":1106:1171   */\n      tag_34\n      jump\t// in\n    tag_55:\n        /* \"#utility.yul\":1060:1178   */\n      swap3\n      swap2\n      pop\n      pop\n      jump\t// out\n        /* \"#utility.yul\":1184:1497   */\n    tag_10:\n      0x00\n        /* \"#utility.yul\":1335:1337   */\n      0x20\n        /* \"#utility.yul\":1324:1333   */\n      dup3\n        /* \"#utility.yul\":1320:1338   */\n      add\n        /* \"#utility.yul\":1312:1338   */\n      swap1\n      pop\n        /* \"#utility.yul\":1384:1393   */\n      dup2\n        /* \"#utility.yul\":1378:1382   */\n      dup2\n        /* \"#utility.yul\":1374:1394   */\n      sub\n        /* \"#utility.yul\":1370:1371   */\n      0x00\n        /* \"#utility.yul\":1359:1368   */\n      dup4\n        /* \"#utility.yul\":1355:1372   */\n      add\n        /* \"#utility.yul\":1348:1395   */\n      mstore\n        /* \"#utility.yul\":1412:1490   */\n      tag_57\n        /* \"#utility.yul\":1485:1489   */\n      dup2\n        /* \"#utility.yul\":1476:1482   */\n      dup5\n        /* \"#utility.yul\":1412:1490   */\n      tag_38\n      jump\t// in\n    tag_57:\n        /* \"#utility.yul\":1404:1490   */\n      swap1\n      pop\n        /* \"#utility.yul\":1302:1497   */\n      swap3\n      swap2\n      pop\n      pop\n      jump\t// out\n        /* \"#utility.yul\":1503:1725   */\n    tag_18:\n      0x00\n        /* \"#utility.yul\":1634:1636   */\n      0x20\n        /* \"#utility.yul\":1623:1632   */\n      dup3\n        /* \"#utility.yul\":1619:1637   */\n      add\n        /* \"#utility.yul\":1611:1637   */\n      swap1\n      pop\n        /* \"#utility.yul\":1647:1718   */\n      tag_59\n        /* \"#utility.yul\":1715:1716   */\n      0x00\n        /* \"#utility.yul\":1704:1713   */\n      dup4\n        /* \"#utility.yul\":1700:1717   */\n      add\n        /* \"#utility.yul\":1691:1697   */\n      dup5\n        /* \"#utility.yul\":1647:1718   */\n      tag_48\n      jump\t// in\n    tag_59:\n        /* \"#utility.yul\":1601:1725   */\n      swap3\n      swap2\n      pop\n      pop\n      jump\t// out\n        /* \"#utility.yul\":1731:1830   */\n    tag_41:\n      0x00\n        /* \"#utility.yul\":1817:1822   */\n      dup2\n        /* \"#utility.yul\":1811:1823   */\n      mload\n        /* \"#utility.yul\":1801:1823   */\n      swap1\n      pop\n        /* \"#utility.yul\":1790:1830   */\n      swap2\n      swap1\n      pop\n      jump\t// out\n        /* \"#utility.yul\":1836:2005   */\n    tag_43:\n      0x00\n        /* \"#utility.yul\":1954:1960   */\n      dup3\n        /* \"#utility.yul\":1949:1952   */\n      dup3\n        /* \"#utility.yul\":1942:1961   */\n      mstore\n        /* \"#utility.yul\":1994:1998   */\n      0x20\n        /* \"#utility.yul\":1989:1992   */\n      dup3\n        /* \"#utility.yul\":1985:1999   */\n      add\n        /* \"#utility.yul\":1970:1999   */\n      swap1\n      pop\n        /* \"#utility.yul\":1932:2005   */\n      swap3\n      swap2\n      pop\n      pop\n      jump\t// out\n        /* \"#utility.yul\":2011:2107   */\n    tag_33:\n      0x00\n        /* \"#utility.yul\":2077:2101   */\n      tag_63\n        /* \"#utility.yul\":2095:2100   */\n      dup3\n        /* \"#utility.yul\":2077:2101   */\n      tag_64\n      jump\t// in\n    tag_63:\n        /* \"#utility.yul\":2066:2101   */\n      swap1\n      pop\n        /* \"#utility.yul\":2056:2107   */\n      swap2\n      swap1\n      pop\n      jump\t// out\n        /* \"#utility.yul\":2113:2203   */\n    tag_37:\n      0x00\n        /* \"#utility.yul\":2190:2195   */\n      dup2\n        /* \"#utility.yul\":2183:2196   */\n      iszero\n        /* \"#utility.yul\":2176:2197   */\n      iszero\n        /* \"#utility.yul\":2165:2197   */\n      swap1\n      pop\n        /* \"#utility.yul\":2155:2203   */\n      swap2\n      swap1\n      pop\n      jump\t// out\n        /* \"#utility.yul\":2209:2335   */\n    tag_64:\n      0x00\n        /* \"#utility.yul\":2286:2328   */\n      0xffffffffffffffffffffffffffffffffffffffff\n        /* \"#utility.yul\":2279:2284   */\n      dup3\n        /* \"#utility.yul\":2275:2329   */\n      and\n        /* \"#utility.yul\":2264:2329   */\n      swap1\n      pop\n        /* \"#utility.yul\":2254:2335   */\n      swap2\n      swap1\n      pop\n      jump\t// out\n        /* \"#utility.yul\":2341:2418   */\n    tag_51:\n      0x00\n        /* \"#utility.yul\":2407:2412   */\n      dup2\n        /* \"#utility.yul\":2396:2412   */\n      swap1\n      pop\n        /* \"#utility.yul\":2386:2418   */\n      swap2\n      swap1\n      pop\n      jump\t// out\n        /* \"#utility.yul\":2424:2731   */\n    tag_45:\n        /* \"#utility.yul\":2492:2493   */\n      0x00\n        /* \"#utility.yul\":2502:2615   */\n    tag_69:\n        /* \"#utility.yul\":2516:2522   */\n      dup4\n        /* \"#utility.yul\":2513:2514   */\n      dup2\n        /* \"#utility.yul\":2510:2523   */\n      lt\n        /* \"#utility.yul\":2502:2615   */\n      iszero\n      tag_71\n      jumpi\n        /* \"#utility.yul\":2601:2602   */\n      dup1\n        /* \"#utility.yul\":2596:2599   */\n      dup3\n        /* \"#utility.yul\":2592:2603   */\n      add\n        /* \"#utility.yul\":2586:2604   */\n      mload\n        /* \"#utility.yul\":2582:2583   */\n      dup2\n        /* \"#utility.yul\":2577:2580   */\n      dup5\n        /* \"#utility.yul\":2573:2584   */\n      add\n        /* \"#utility.yul\":2566:2605   */\n      mstore\n        /* \"#utility.yul\":2538:2540   */\n      0x20\n        /* \"#utility.yul\":2535:2536   */\n      dup2\n        /* \"#utility.yul\":2531:2541   */\n      add\n        /* \"#utility.yul\":2526:2541   */\n      swap1\n      pop\n        /* \"#utility.yul\":2502:2615   */\n      jump(tag_69)\n    tag_71:\n        /* \"#utility.yul\":2633:2639   */\n      dup4\n        /* \"#utility.yul\":2630:2631   */\n      dup2\n        /* \"#utility.yul\":2627:2640   */\n      gt\n        /* \"#utility.yul\":2624:2626   */\n      iszero\n      tag_72\n      jumpi\n        /* \"#utility.yul\":2713:2714   */\n      0x00\n        /* \"#utility.yul\":2704:2710   */\n      dup5\n        /* \"#utility.yul\":2699:2702   */\n      dup5\n        /* \"#utility.yul\":2695:2711   */\n      add\n        /* \"#utility.yul\":2688:2715   */\n      mstore\n        /* \"#utility.yul\":2624:2626   */\n    tag_72:\n        /* \"#utility.yul\":2473:2731   */\n      pop\n      pop\n      pop\n      pop\n      jump\t// out\n        /* \"#utility.yul\":2737:3057   */\n    tag_24:\n      0x00\n        /* \"#utility.yul\":2818:2819   */\n      0x02\n        /* \"#utility.yul\":2812:2816   */\n      dup3\n        /* \"#utility.yul\":2808:2820   */\n      div\n        /* \"#utility.yul\":2798:2820   */\n      swap1\n      pop\n        /* \"#utility.yul\":2865:2866   */\n      0x01\n        /* \"#utility.yul\":2859:2863   */\n      dup3\n        /* \"#utility.yul\":2855:2867   */\n      and\n        /* \"#utility.yul\":2886:2904   */\n      dup1\n        /* \"#utility.yul\":2876:2878   */\n      tag_74\n      jumpi\n        /* \"#utility.yul\":2942:2946   */\n      0x7f\n        /* \"#utility.yul\":2934:2940   */\n      dup3\n        /* \"#utility.yul\":2930:2947   */\n      and\n        /* \"#utility.yul\":2920:2947   */\n      swap2\n      pop\n        /* \"#utility.yul\":2876:2878   */\n    tag_74:\n        /* \"#utility.yul\":3004:3006   */\n      0x20\n        /* \"#utility.yul\":2996:3002   */\n      dup3\n        /* \"#utility.yul\":2993:3007   */\n      lt\n        /* \"#utility.yul\":2973:2991   */\n      dup2\n        /* \"#utility.yul\":2970:3008   */\n      eq\n        /* \"#utility.yul\":2967:2969   */\n      iszero\n      tag_75\n      jumpi\n        /* \"#utility.yul\":3023:3041   */\n      tag_76\n      tag_77\n      jump\t// in\n    tag_76:\n        /* \"#utility.yul\":2967:2969   */\n    tag_75:\n        /* \"#utility.yul\":2788:3057   */\n      pop\n      swap2\n      swap1\n      pop\n      jump\t// out\n        /* \"#utility.yul\":3063:3243   */\n    tag_77:\n        /* \"#utility.yul\":3111:3188   */\n      0x4e487b7100000000000000000000000000000000000000000000000000000000\n        /* \"#utility.yul\":3108:3109   */\n      0x00\n        /* \"#utility.yul\":3101:3189   */\n      mstore\n        /* \"#utility.yul\":3208:3212   */\n      0x22\n        /* \"#utility.yul\":3205:3206   */\n      0x04\n        /* \"#utility.yul\":3198:3213   */\n      mstore\n        /* \"#utility.yul\":3232:3236   */\n      0x24\n        /* \"#utility.yul\":3229:3230   */\n      0x00\n        /* \"#utility.yul\":3222:3237   */\n      revert\n        /* \"#utility.yul\":3249:3351   */\n    tag_47:\n      0x00\n        /* \"#utility.yul\":3341:3343   */\n      0x1f\n        /* \"#utility.yul\":3337:3344   */\n      not\n        /* \"#utility.yul\":3332:3334   */\n      0x1f\n        /* \"#utility.yul\":3325:3330   */\n      dup4\n        /* \"#utility.yul\":3321:3335   */\n      add\n        /* \"#utility.yul\":3317:3345   */\n      and\n        /* \"#utility.yul\":3307:3345   */\n      swap1\n      pop\n        /* \"#utility.yul\":3297:3351   */\n      swap2\n      swap1\n      pop\n      jump\t// out\n\n    auxdata: 0xa2646970667358221220bd6d75fbd054dadfe14cc2cdea6fd7eb82858b435fbb65f52ee8a22db587989264736f6c63430008010033\n}\n",
				"bytecode": {
					"linkReferences": {},
					"object": "608060405234801561001057600080fd5b506040516107ab3803806107ab833981810160405281019061003291906101e8565b8260008190555081600160006101000a81548160ff02191690831515021790555080600290805190602001906100699291906100b3565b5033600360006101000a81548173ffffffffffffffffffffffffffffffffffffffff021916908373ffffffffffffffffffffffffffffffffffffffff1602179055505050506103ee565b8280546100bf906102ee565b90600052602060002090601f0160209004810192826100e15760008555610128565b82601f106100fa57805160ff1916838001178555610128565b82800160010185558215610128579182015b8281111561012757825182559160200191906001019061010c565b5b5090506101359190610139565b5090565b5b8082111561015257600081600090555060010161013a565b5090565b600061016961016484610274565b61024f565b90508281526020810184848401111561018157600080fd5b61018c8482856102bb565b509392505050565b6000815190506101a3816103c0565b92915050565b600082601f8301126101ba57600080fd5b81516101ca848260208601610156565b91505092915050565b6000815190506101e2816103d7565b92915050565b6000806000606084860312156101fd57600080fd5b600061020b868287016101d3565b935050602061021c86828701610194565b925050604084015167ffffffffffffffff81111561023957600080fd5b610245868287016101a9565b9150509250925092565b600061025961026a565b90506102658282610320565b919050565b6000604051905090565b600067ffffffffffffffff82111561028f5761028e610380565b5b610298826103af565b9050602081019050919050565b60008115159050919050565b6000819050919050565b60005b838110156102d95780820151818401526020810190506102be565b838111156102e8576000848401525b50505050565b6000600282049050600182168061030657607f821691505b6020821081141561031a57610319610351565b5b50919050565b610329826103af565b810181811067ffffffffffffffff8211171561034857610347610380565b5b80604052505050565b7f4e487b7100000000000000000000000000000000000000000000000000000000600052602260045260246000fd5b7f4e487b7100000000000000000000000000000000000000000000000000000000600052604160045260246000fd5b6000601f19601f8301169050919050565b6103c9816102a5565b81146103d457600080fd5b50565b6103e0816102b1565b81146103eb57600080fd5b50565b6103ae806103fd6000396000f3fe608060405234801561001057600080fd5b506004361061004c5760003560e01c806306fdde0314610051578063099aea0a1461006f5780633f83ea3b1461008d578063521eb273146100ab575b600080fd5b6100596100c9565b6040516100669190610232565b60405180910390f35b610077610157565b6040516100849190610217565b60405180910390f35b61009561016a565b6040516100a29190610254565b60405180910390f35b6100b3610170565b6040516100c091906101fc565b60405180910390f35b600280546100d690610306565b80601f016020809104026020016040519081016040528092919081815260200182805461010290610306565b801561014f5780601f106101245761010080835404028352916020019161014f565b820191906000526020600020905b81548152906001019060200180831161013257829003601f168201915b505050505081565b600160009054906101000a900460ff1681565b60005481565b600360009054906101000a900473ffffffffffffffffffffffffffffffffffffffff1681565b61019f8161028b565b82525050565b6101ae8161029d565b82525050565b60006101bf8261026f565b6101c9818561027a565b93506101d98185602086016102d3565b6101e281610367565b840191505092915050565b6101f6816102c9565b82525050565b60006020820190506102116000830184610196565b92915050565b600060208201905061022c60008301846101a5565b92915050565b6000602082019050818103600083015261024c81846101b4565b905092915050565b600060208201905061026960008301846101ed565b92915050565b600081519050919050565b600082825260208201905092915050565b6000610296826102a9565b9050919050565b60008115159050919050565b600073ffffffffffffffffffffffffffffffffffffffff82169050919050565b6000819050919050565b60005b838110156102f15780820151818401526020810190506102d6565b83811115610300576000848401525b50505050565b6000600282049050600182168061031e57607f821691505b6020821081141561033257610331610338565b5b50919050565b7f4e487b7100000000000000000000000000000000000000000000000000000000600052602260045260246000fd5b6000601f19601f830116905091905056fea2646970667358221220bd6d75fbd054dadfe14cc2cdea6fd7eb82858b435fbb65f52ee8a22db587989264736f6c63430008010033",
					"opcodes": "PUSH1 0x80 PUSH1 0x40 MSTORE CALLVALUE DUP1 ISZERO PUSH2 0x10 JUMPI PUSH1 0x0 DUP1 REVERT JUMPDEST POP PUSH1 0x40 MLOAD PUSH2 0x7AB CODESIZE SUB DUP1 PUSH2 0x7AB DUP4 CODECOPY DUP2 DUP2 ADD PUSH1 0x40 MSTORE DUP2 ADD SWAP1 PUSH2 0x32 SWAP2 SWAP1 PUSH2 0x1E8 JUMP JUMPDEST DUP3 PUSH1 0x0 DUP2 SWAP1 SSTORE POP DUP2 PUSH1 0x1 PUSH1 0x0 PUSH2 0x100 EXP DUP2 SLOAD DUP2 PUSH1 0xFF MUL NOT AND SWAP1 DUP4 ISZERO ISZERO MUL OR SWAP1 SSTORE POP DUP1 PUSH1 0x2 SWAP1 DUP1 MLOAD SWAP1 PUSH1 0x20 ADD SWAP1 PUSH2 0x69 SWAP3 SWAP2 SWAP1 PUSH2 0xB3 JUMP JUMPDEST POP CALLER PUSH1 0x3 PUSH1 0x0 PUSH2 0x100 EXP DUP2 SLOAD DUP2 PUSH20 0xFFFFFFFFFFFFFFFFFFFFFFFFFFFFFFFFFFFFFFFF MUL NOT AND SWAP1 DUP4 PUSH20 0xFFFFFFFFFFFFFFFFFFFFFFFFFFFFFFFFFFFFFFFF AND MUL OR SWAP1 SSTORE POP POP POP POP PUSH2 0x3EE JUMP JUMPDEST DUP3 DUP1 SLOAD PUSH2 0xBF SWAP1 PUSH2 0x2EE JUMP JUMPDEST SWAP1 PUSH1 0x0 MSTORE PUSH1 0x20 PUSH1 0x0 KECCAK256 SWAP1 PUSH1 0x1F ADD PUSH1 0x20 SWAP1 DIV DUP2 ADD SWAP3 DUP3 PUSH2 0xE1 JUMPI PUSH1 0x0 DUP6 SSTORE PUSH2 0x128 JUMP JUMPDEST DUP3 PUSH1 0x1F LT PUSH2 0xFA JUMPI DUP1 MLOAD PUSH1 0xFF NOT AND DUP4 DUP1 ADD OR DUP6 SSTORE PUSH2 0x128 JUMP JUMPDEST DUP3 DUP1 ADD PUSH1 0x1 ADD DUP6 SSTORE DUP3 ISZERO PUSH2 0x128 JUMPI SWAP2 DUP3 ADD JUMPDEST DUP3 DUP2 GT ISZERO PUSH2 0x127 JUMPI DUP3 MLOAD DUP3 SSTORE SWAP2 PUSH1 0x20 ADD SWAP2 SWAP1 PUSH1 0x1 ADD SWAP1 PUSH2 0x10C JUMP JUMPDEST JUMPDEST POP SWAP1 POP PUSH2 0x135 SWAP2 SWAP1 PUSH2 0x139 JUMP JUMPDEST POP SWAP1 JUMP JUMPDEST JUMPDEST DUP1 DUP3 GT ISZERO PUSH2 0x152 JUMPI PUSH1 0x0 DUP2 PUSH1 0x0 SWAP1 SSTORE POP PUSH1 0x1 ADD PUSH2 0x13A JUMP JUMPDEST POP SWAP1 JUMP JUMPDEST PUSH1 0x0 PUSH2 0x169 PUSH2 0x164 DUP5 PUSH2 0x274 JUMP JUMPDEST PUSH2 0x24F JUMP JUMPDEST SWAP1 POP DUP3 DUP2 MSTORE PUSH1 0x20 DUP2 ADD DUP5 DUP5 DUP5 ADD GT ISZERO PUSH2 0x181 JUMPI PUSH1 0x0 DUP1 REVERT JUMPDEST PUSH2 0x18C DUP5 DUP3 DUP6 PUSH2 0x2BB JUMP JUMPDEST POP SWAP4 SWAP3 POP POP POP JUMP JUMPDEST PUSH1 0x0 DUP2 MLOAD SWAP1 POP PUSH2 0x1A3 DUP2 PUSH2 0x3C0 JUMP JUMPDEST SWAP3 SWAP2 POP POP JUMP JUMPDEST PUSH1 0x0 DUP3 PUSH1 0x1F DUP4 ADD SLT PUSH2 0x1BA JUMPI PUSH1 0x0 DUP1 REVERT JUMPDEST DUP2 MLOAD PUSH2 0x1CA DUP5 DUP3 PUSH1 0x20 DUP7 ADD PUSH2 0x156 JUMP JUMPDEST SWAP2 POP POP SWAP3 SWAP2 POP POP JUMP JUMPDEST PUSH1 0x0 DUP2 MLOAD SWAP1 POP PUSH2 0x1E2 DUP2 PUSH2 0x3D7 JUMP JUMPDEST SWAP3 SWAP2 POP POP JUMP JUMPDEST PUSH1 0x0 DUP1 PUSH1 0x0 PUSH1 0x60 DUP5 DUP7 SUB SLT ISZERO PUSH2 0x1FD JUMPI PUSH1 0x0 DUP1 REVERT JUMPDEST PUSH1 0x0 PUSH2 0x20B DUP7 DUP3 DUP8 ADD PUSH2 0x1D3 JUMP JUMPDEST SWAP4 POP POP PUSH1 0x20 PUSH2 0x21C DUP7 DUP3 DUP8 ADD PUSH2 0x194 JUMP JUMPDEST SWAP3 POP POP PUSH1 0x40 DUP5 ADD MLOAD PUSH8 0xFFFFFFFFFFFFFFFF DUP2 GT ISZERO PUSH2 0x239 JUMPI PUSH1 0x0 DUP1 REVERT JUMPDEST PUSH2 0x245 DUP7 DUP3 DUP8 ADD PUSH2 0x1A9 JUMP JUMPDEST SWAP2 POP POP SWAP3 POP SWAP3 POP SWAP3 JUMP JUMPDEST PUSH1 0x0 PUSH2 0x259 PUSH2 0x26A JUMP JUMPDEST SWAP1 POP PUSH2 0x265 DUP3 DUP3 PUSH2 0x320 JUMP JUMPDEST SWAP2 SWAP1 POP JUMP JUMPDEST PUSH1 0x0 PUSH1 0x40 MLOAD SWAP1 POP SWAP1 JUMP JUMPDEST PUSH1 0x0 PUSH8 0xFFFFFFFFFFFFFFFF DUP3 GT ISZERO PUSH2 0x28F JUMPI PUSH2 0x28E PUSH2 0x380 JUMP JUMPDEST JUMPDEST PUSH2 0x298 DUP3 PUSH2 0x3AF JUMP JUMPDEST SWAP1 POP PUSH1 0x20 DUP2 ADD SWAP1 POP SWAP2 SWAP1 POP JUMP JUMPDEST PUSH1 0x0 DUP2 ISZERO ISZERO SWAP1 POP SWAP2 SWAP1 POP JUMP JUMPDEST PUSH1 0x0 DUP2 SWAP1 POP SWAP2 SWAP1 POP JUMP JUMPDEST PUSH1 0x0 JUMPDEST DUP4 DUP2 LT ISZERO PUSH2 0x2D9 JUMPI DUP1 DUP3 ADD MLOAD DUP2 DUP5 ADD MSTORE PUSH1 0x20 DUP2 ADD SWAP1 POP PUSH2 0x2BE JUMP JUMPDEST DUP4 DUP2 GT ISZERO PUSH2 0x2E8 JUMPI PUSH1 0x0 DUP5 DUP5 ADD MSTORE JUMPDEST POP POP POP POP JUMP JUMPDEST PUSH1 0x0 PUSH1 0x2 DUP3 DIV SWAP1 POP PUSH1 0x1 DUP3 AND DUP1 PUSH2 0x306 JUMPI PUSH1 0x7F DUP3 AND SWAP2 POP JUMPDEST PUSH1 0x20 DUP3 LT DUP2 EQ ISZERO PUSH2 0x31A JUMPI PUSH2 0x319 PUSH2 0x351 JUMP JUMPDEST JUMPDEST POP SWAP2 SWAP1 POP JUMP JUMPDEST PUSH2 0x329 DUP3 PUSH2 0x3AF JUMP JUMPDEST DUP2 ADD DUP2 DUP2 LT PUSH8 0xFFFFFFFFFFFFFFFF DUP3 GT OR ISZERO PUSH2 0x348 JUMPI PUSH2 0x347 PUSH2 0x380 JUMP JUMPDEST JUMPDEST DUP1 PUSH1 0x40 MSTORE POP POP POP JUMP JUMPDEST PUSH32 0x4E487B7100000000000000000000000000000000000000000000000000000000 PUSH1 0x0 MSTORE PUSH1 0x22 PUSH1 0x4 MSTORE PUSH1 0x24 PUSH1 0x0 REVERT JUMPDEST PUSH32 0x4E487B7100000000000000000000000000000000000000000000000000000000 PUSH1 0x0 MSTORE PUSH1 0x41 PUSH1 0x4 MSTORE PUSH1 0x24 PUSH1 0x0 REVERT JUMPDEST PUSH1 0x0 PUSH1 0x1F NOT PUSH1 0x1F DUP4 ADD AND SWAP1 POP SWAP2 SWAP1 POP JUMP JUMPDEST PUSH2 0x3C9 DUP2 PUSH2 0x2A5 JUMP JUMPDEST DUP2 EQ PUSH2 0x3D4 JUMPI PUSH1 0x0 DUP1 REVERT JUMPDEST POP JUMP JUMPDEST PUSH2 0x3E0 DUP2 PUSH2 0x2B1 JUMP JUMPDEST DUP2 EQ PUSH2 0x3EB JUMPI PUSH1 0x0 DUP1 REVERT JUMPDEST POP JUMP JUMPDEST PUSH2 0x3AE DUP1 PUSH2 0x3FD PUSH1 0x0 CODECOPY PUSH1 0x0 RETURN INVALID PUSH1 0x80 PUSH1 0x40 MSTORE CALLVALUE DUP1 ISZERO PUSH2 0x10 JUMPI PUSH1 0x0 DUP1 REVERT JUMPDEST POP PUSH1 0x4 CALLDATASIZE LT PUSH2 0x4C JUMPI PUSH1 0x0 CALLDATALOAD PUSH1 0xE0 SHR DUP1 PUSH4 0x6FDDE03 EQ PUSH2 0x51 JUMPI DUP1 PUSH4 0x99AEA0A EQ PUSH2 0x6F JUMPI DUP1 PUSH4 0x3F83EA3B EQ PUSH2 0x8D JUMPI DUP1 PUSH4 0x521EB273 EQ PUSH2 0xAB JUMPI JUMPDEST PUSH1 0x0 DUP1 REVERT JUMPDEST PUSH2 0x59 PUSH2 0xC9 JUMP JUMPDEST PUSH1 0x40 MLOAD PUSH2 0x66 SWAP2 SWAP1 PUSH2 0x232 JUMP JUMPDEST PUSH1 0x40 MLOAD DUP1 SWAP2 SUB SWAP1 RETURN JUMPDEST PUSH2 0x77 PUSH2 0x157 JUMP JUMPDEST PUSH1 0x40 MLOAD PUSH2 0x84 SWAP2 SWAP1 PUSH2 0x217 JUMP JUMPDEST PUSH1 0x40 MLOAD DUP1 SWAP2 SUB SWAP1 RETURN JUMPDEST PUSH2 0x95 PUSH2 0x16A JUMP JUMPDEST PUSH1 0x40 MLOAD PUSH2 0xA2 SWAP2 SWAP1 PUSH2 0x254 JUMP JUMPDEST PUSH1 0x40 MLOAD DUP1 SWAP2 SUB SWAP1 RETURN JUMPDEST PUSH2 0xB3 PUSH2 0x170 JUMP JUMPDEST PUSH1 0x40 MLOAD PUSH2 0xC0 SWAP2 SWAP1 PUSH2 0x1FC JUMP JUMPDEST PUSH1 0x40 MLOAD DUP1 SWAP2 SUB SWAP1 RETURN JUMPDEST PUSH1 0x2 DUP1 SLOAD PUSH2 0xD6 SWAP1 PUSH2 0x306 JUMP JUMPDEST DUP1 PUSH1 0x1F ADD PUSH1 0x20 DUP1 SWAP2 DIV MUL PUSH1 0x20 ADD PUSH1 0x40 MLOAD SWAP1 DUP2 ADD PUSH1 0x40 MSTORE DUP1 SWAP3 SWAP2 SWAP1 DUP2 DUP2 MSTORE PUSH1 0x20 ADD DUP3 DUP1 SLOAD PUSH2 0x102 SWAP1 PUSH2 0x306 JUMP JUMPDEST DUP1 ISZERO PUSH2 0x14F JUMPI DUP1 PUSH1 0x1F LT PUSH2 0x124 JUMPI PUSH2 0x100 DUP1 DUP4 SLOAD DIV MUL DUP4 MSTORE SWAP2 PUSH1 0x20 ADD SWAP2 PUSH2 0x14F JUMP JUMPDEST DUP3 ADD SWAP2 SWAP1 PUSH1 0x0 MSTORE PUSH1 0x20 PUSH1 0x0 KECCAK256 SWAP1 JUMPDEST DUP2 SLOAD DUP2 MSTORE SWAP1 PUSH1 0x1 ADD SWAP1 PUSH1 0x20 ADD DUP1 DUP4 GT PUSH2 0x132 JUMPI DUP3 SWAP1 SUB PUSH1 0x1F AND DUP3 ADD SWAP2 JUMPDEST POP POP POP POP POP DUP2 JUMP JUMPDEST PUSH1 0x1 PUSH1 0x0 SWAP1 SLOAD SWAP1 PUSH2 0x100 EXP SWAP1 DIV PUSH1 0xFF AND DUP2 JUMP JUMPDEST PUSH1 0x0 SLOAD DUP2 JUMP JUMPDEST PUSH1 0x3 PUSH1 0x0 SWAP1 SLOAD SWAP1 PUSH2 0x100 EXP SWAP1 DIV PUSH20 0xFFFFFFFFFFFFFFFFFFFFFFFFFFFFFFFFFFFFFFFF AND DUP2 JUMP JUMPDEST PUSH2 0x19F DUP2 PUSH2 0x28B JUMP JUMPDEST DUP3 MSTORE POP POP JUMP JUMPDEST PUSH2 0x1AE DUP2 PUSH2 0x29D JUMP JUMPDEST DUP3 MSTORE POP POP JUMP JUMPDEST PUSH1 0x0 PUSH2 0x1BF DUP3 PUSH2 0x26F JUMP JUMPDEST PUSH2 0x1C9 DUP2 DUP6 PUSH2 0x27A JUMP JUMPDEST SWAP4 POP PUSH2 0x1D9 DUP2 DUP6 PUSH1 0x20 DUP7 ADD PUSH2 0x2D3 JUMP JUMPDEST PUSH2 0x1E2 DUP2 PUSH2 0x367 JUMP JUMPDEST DUP5 ADD SWAP2 POP POP SWAP3 SWAP2 POP POP JUMP JUMPDEST PUSH2 0x1F6 DUP2 PUSH2 0x2C9 JUMP JUMPDEST DUP3 MSTORE POP POP JUMP JUMPDEST PUSH1 0x0 PUSH1 0x20 DUP3 ADD SWAP1 POP PUSH2 0x211 PUSH1 0x0 DUP4 ADD DUP5 PUSH2 0x196 JUMP JUMPDEST SWAP3 SWAP2 POP POP JUMP JUMPDEST PUSH1 0x0 PUSH1 0x20 DUP3 ADD SWAP1 POP PUSH2 0x22C PUSH1 0x0 DUP4 ADD DUP5 PUSH2 0x1A5 JUMP JUMPDEST SWAP3 SWAP2 POP POP JUMP JUMPDEST PUSH1 0x0 PUSH1 0x20 DUP3 ADD SWAP1 POP DUP2 DUP2 SUB PUSH1 0x0 DUP4 ADD MSTORE PUSH2 0x24C DUP2 DUP5 PUSH2 0x1B4 JUMP JUMPDEST SWAP1 POP SWAP3 SWAP2 POP POP JUMP JUMPDEST PUSH1 0x0 PUSH1 0x20 DUP3 ADD SWAP1 POP PUSH2 0x269 PUSH1 0x0 DUP4 ADD DUP5 PUSH2 0x1ED JUMP JUMPDEST SWAP3 SWAP2 POP POP JUMP JUMPDEST PUSH1 0x0 DUP2 MLOAD SWAP1 POP SWAP2 SWAP1 POP JUMP JUMPDEST PUSH1 0x0 DUP3 DUP3 MSTORE PUSH1 0x20 DUP3 ADD SWAP1 POP SWAP3 SWAP2 POP POP JUMP JUMPDEST PUSH1 0x0 PUSH2 0x296 DUP3 PUSH2 0x2A9 JUMP JUMPDEST SWAP1 POP SWAP2 SWAP1 POP JUMP JUMPDEST PUSH1 0x0 DUP2 ISZERO ISZERO SWAP1 POP SWAP2 SWAP1 POP JUMP JUMPDEST PUSH1 0x0 PUSH20 0xFFFFFFFFFFFFFFFFFFFFFFFFFFFFFFFFFFFFFFFF DUP3 AND SWAP1 POP SWAP2 SWAP1 POP JUMP JUMPDEST PUSH1 0x0 DUP2 SWAP1 POP SWAP2 SWAP1 POP JUMP JUMPDEST PUSH1 0x0 JUMPDEST DUP4 DUP2 LT ISZERO PUSH2 0x2F1 JUMPI DUP1 DUP3 ADD MLOAD DUP2 DUP5 ADD MSTORE PUSH1 0x20 DUP2 ADD SWAP1 POP PUSH2 0x2D6 JUMP JUMPDEST DUP4 DUP2 GT ISZERO PUSH2 0x300 JUMPI PUSH1 0x0 DUP5 DUP5 ADD MSTORE JUMPDEST POP POP POP POP JUMP JUMPDEST PUSH1 0x0 PUSH1 0x2 DUP3 DIV SWAP1 POP PUSH1 0x1 DUP3 AND DUP1 PUSH2 0x31E JUMPI PUSH1 0x7F DUP3 AND SWAP2 POP JUMPDEST PUSH1 0x20 DUP3 LT DUP2 EQ ISZERO PUSH2 0x332 JUMPI PUSH2 0x331 PUSH2 0x338 JUMP JUMPDEST JUMPDEST POP SWAP2 SWAP1 POP JUMP JUMPDEST PUSH32 0x4E487B7100000000000000000000000000000000000000000000000000000000 PUSH1 0x0 MSTORE PUSH1 0x22 PUSH1 0x4 MSTORE PUSH1 0x24 PUSH1 0x0 REVERT JUMPDEST PUSH1 0x0 PUSH1 0x1F NOT PUSH1 0x1F DUP4 ADD AND SWAP1 POP SWAP2 SWAP1 POP JUMP INVALID LOG2 PUSH5 0x6970667358 0x22 SLT KECCAK256 0xBD PUSH14 0x75FBD054DADFE14CC2CDEA6FD7EB DUP3 DUP6 DUP12 NUMBER 0x5F 0xBB PUSH6 0xF52EE8A22DB5 DUP8 SWAP9 SWAP3 PUSH5 0x736F6C6343 STOP ADDMOD ADD STOP CALLER "
				},
				"gasEstimates": {
					"creation": {
						"codeDepositCost": "188400",
						"executionCost": "infinite",
						"totalCost": "infinite"
					},
					"external": {
						"idNumber()": "1151",
						"isWorking()": "1171",
						"name()": "infinite",
						"wallet()": "1258"
					}
				},
				"methodIdentifiers": {
					"idNumber()": "3f83ea3b",
					"isWorking()": "099aea0a",
					"name()": "06fdde03",
					"wallet()": "521eb273"
				}
			},
			"storageLayout": {
				"storage": [
					{
						"astId": 3,
						"contract": "Contracts/Identity.sol:Identity",
						"label": "idNumber",
						"offset": 0,
						"slot": "0",
						"type": "t_uint256"
					},
					{
						"astId": 5,
						"contract": "Contracts/Identity.sol:Identity",
						"label": "isWorking",
						"offset": 0,
						"slot": "1",
						"type": "t_bool"
					},
					{
						"astId": 7,
						"contract": "Contracts/Identity.sol:Identity",
						"label": "name",
						"offset": 0,
						"slot": "2",
						"type": "t_string_storage"
					},
					{
						"astId": 9,
						"contract": "Contracts/Identity.sol:Identity",
						"label": "wallet",
						"offset": 0,
						"slot": "3",
						"type": "t_address"
					}
				],
				"types": {
					"t_address": {
						"encoding": "inplace",
						"label": "address",
						"numberOfBytes": "20"
					},
					"t_bool": {
						"encoding": "inplace",
						"label": "bool",
						"numberOfBytes": "1"
					},
					"t_string_storage": {
						"encoding": "bytes",
						"label": "string",
						"numberOfBytes": "32"
					},
					"t_uint256": {
						"encoding": "inplace",
						"label": "uint256",
						"numberOfBytes": "32"
					}
				}
			},
			"userdoc": {
				"kind": "user",
				"methods": {},
				"version": 1
			}
		}
	}
}