{
	"Contracts/ElevenEpisode.sol": {
		"ElevenEpisode": {
			"abi": [
				{
					"inputs": [
						{
							"internalType": "string",
							"name": "_id",
							"type": "string"
						},
						{
							"internalType": "string",
							"name": "_name",
							"type": "string"
						},
						{
							"internalType": "string",
							"name": "_description",
							"type": "string"
						},
						{
							"internalType": "uint256",
							"name": "_fundraisingoal",
							"type": "uint256"
						}
					],
					"stateMutability": "nonpayable",
					"type": "constructor"
				},
				{
					"inputs": [],
					"name": "author",
					"outputs": [
						{
							"internalType": "address",
							"name": "",
							"type": "address"
						}
					],
					"stateMutability": "view",
					"type": "function"
				},
				{
					"inputs": [],
					"name": "id",
					"outputs": [
						{
							"internalType": "string",
							"name": "",
							"type": "string"
						}
					],
					"stateMutability": "view",
					"type": "function"
				},
				{
					"inputs": [],
					"name": "name",
					"outputs": [
						{
							"internalType": "string",
							"name": "",
							"type": "string"
						}
					],
					"stateMutability": "view",
					"type": "function"
				},
				{
					"inputs": [
						{
							"internalType": "address payable",
							"name": "receiver",
							"type": "address"
						}
					],
					"name": "sendEther",
					"outputs": [],
					"stateMutability": "payable",
					"type": "function"
				}
			],
			"devdoc": {
				"kind": "dev",
				"methods": {},
				"version": 1
			},
			"evm": {
				"assembly": "    /* \"Contracts/ElevenEpisode.sol\":62:712  contract ElevenEpisode{ \r... */\n  mstore(0x40, 0x80)\n    /* \"Contracts/ElevenEpisode.sol\":226:575  constructor(\r... */\n  callvalue\n  dup1\n  iszero\n  tag_1\n  jumpi\n  0x00\n  dup1\n  revert\ntag_1:\n  pop\n  mload(0x40)\n  sub(codesize, bytecodeSize)\n  dup1\n  bytecodeSize\n  dup4\n  codecopy\n  dup2\n  dup2\n  add\n  0x40\n  mstore\n  dup2\n  add\n  swap1\n  tag_2\n  swap2\n  swap1\n  tag_3\n  jump\t// in\ntag_2:\n    /* \"Contracts/ElevenEpisode.sol\":401:404  _id */\n  dup4\n    /* \"Contracts/ElevenEpisode.sol\":396:398  id */\n  0x00\n    /* \"Contracts/ElevenEpisode.sol\":396:404  id = _id */\n  swap1\n  dup1\n  mload\n  swap1\n  0x20\n  add\n  swap1\n  tag_6\n  swap3\n  swap2\n  swap1\n  tag_7\n  jump\t// in\ntag_6:\n  pop\n    /* \"Contracts/ElevenEpisode.sol\":426:431  _name */\n  dup3\n    /* \"Contracts/ElevenEpisode.sol\":419:423  name */\n  0x01\n    /* \"Contracts/ElevenEpisode.sol\":419:431  name = _name */\n  swap1\n  dup1\n  mload\n  swap1\n  0x20\n  add\n  swap1\n  tag_8\n  swap3\n  swap2\n  swap1\n  tag_7\n  jump\t// in\ntag_8:\n  pop\n    /* \"Contracts/ElevenEpisode.sol\":460:472  _description */\n  dup2\n    /* \"Contracts/ElevenEpisode.sol\":446:457  description */\n  0x02\n    /* \"Contracts/ElevenEpisode.sol\":446:472  description = _description */\n  swap1\n  dup1\n  mload\n  swap1\n  0x20\n  add\n  swap1\n  tag_9\n  swap3\n  swap2\n  swap1\n  tag_7\n  jump\t// in\ntag_9:\n  pop\n    /* \"Contracts/ElevenEpisode.sol\":503:518  _fundraisingoal */\n  dup1\n    /* \"Contracts/ElevenEpisode.sol\":487:501  fundraisingoal */\n  0x03\n    /* \"Contracts/ElevenEpisode.sol\":487:518  fundraisingoal= _fundraisingoal */\n  dup2\n  swap1\n  sstore\n  pop\n    /* \"Contracts/ElevenEpisode.sol\":550:560  msg.sender */\n  caller\n    /* \"Contracts/ElevenEpisode.sol\":533:539  author */\n  0x04\n  0x00\n    /* \"Contracts/ElevenEpisode.sol\":533:561  author = payable(msg.sender) */\n  0x0100\n  exp\n  dup2\n  sload\n  dup2\n  0xffffffffffffffffffffffffffffffffffffffff\n  mul\n  not\n  and\n  swap1\n  dup4\n  0xffffffffffffffffffffffffffffffffffffffff\n  and\n  mul\n  or\n  swap1\n  sstore\n  pop\n    /* \"Contracts/ElevenEpisode.sol\":226:575  constructor(\r... */\n  pop\n  pop\n  pop\n  pop\n    /* \"Contracts/ElevenEpisode.sol\":62:712  contract ElevenEpisode{ \r... */\n  jump(tag_10)\ntag_7:\n  dup3\n  dup1\n  sload\n  tag_11\n  swap1\n  tag_12\n  jump\t// in\ntag_11:\n  swap1\n  0x00\n  mstore\n  keccak256(0x00, 0x20)\n  swap1\n  0x1f\n  add\n  0x20\n  swap1\n  div\n  dup2\n  add\n  swap3\n  dup3\n  tag_14\n  jumpi\n  0x00\n  dup6\n  sstore\n  jump(tag_13)\ntag_14:\n  dup3\n  0x1f\n  lt\n  tag_15\n  jumpi\n  dup1\n  mload\n  not(0xff)\n  and\n  dup4\n  dup1\n  add\n  or\n  dup6\n  sstore\n  jump(tag_13)\ntag_15:\n  dup3\n  dup1\n  add\n  0x01\n  add\n  dup6\n  sstore\n  dup3\n  iszero\n  tag_13\n  jumpi\n  swap2\n  dup3\n  add\ntag_16:\n  dup3\n  dup2\n  gt\n  iszero\n  tag_17\n  jumpi\n  dup3\n  mload\n  dup3\n  sstore\n  swap2\n  0x20\n  add\n  swap2\n  swap1\n  0x01\n  add\n  swap1\n  jump(tag_16)\ntag_17:\ntag_13:\n  pop\n  swap1\n  pop\n  tag_18\n  swap2\n  swap1\n  tag_19\n  jump\t// in\ntag_18:\n  pop\n  swap1\n  jump\t// out\ntag_19:\ntag_20:\n  dup1\n  dup3\n  gt\n  iszero\n  tag_21\n  jumpi\n  0x00\n  dup2\n  0x00\n  swap1\n  sstore\n  pop\n  0x01\n  add\n  jump(tag_20)\ntag_21:\n  pop\n  swap1\n  jump\t// out\n    /* \"#utility.yul\":7:361   */\ntag_23:\n  0x00\n    /* \"#utility.yul\":121:187   */\n  tag_25\n    /* \"#utility.yul\":137:186   */\n  tag_26\n    /* \"#utility.yul\":179:185   */\n  dup5\n    /* \"#utility.yul\":137:186   */\n  tag_27\n  jump\t// in\ntag_26:\n    /* \"#utility.yul\":121:187   */\n  tag_28\n  jump\t// in\ntag_25:\n    /* \"#utility.yul\":112:187   */\n  swap1\n  pop\n    /* \"#utility.yul\":210:216   */\n  dup3\n    /* \"#utility.yul\":203:208   */\n  dup2\n    /* \"#utility.yul\":196:217   */\n  mstore\n    /* \"#utility.yul\":248:252   */\n  0x20\n    /* \"#utility.yul\":241:246   */\n  dup2\n    /* \"#utility.yul\":237:253   */\n  add\n    /* \"#utility.yul\":286:289   */\n  dup5\n    /* \"#utility.yul\":277:283   */\n  dup5\n    /* \"#utility.yul\":272:275   */\n  dup5\n    /* \"#utility.yul\":268:284   */\n  add\n    /* \"#utility.yul\":265:290   */\n  gt\n    /* \"#utility.yul\":262:264   */\n  iszero\n  tag_29\n  jumpi\n    /* \"#utility.yul\":303:304   */\n  0x00\n    /* \"#utility.yul\":300:301   */\n  dup1\n    /* \"#utility.yul\":293:305   */\n  revert\n    /* \"#utility.yul\":262:264   */\ntag_29:\n    /* \"#utility.yul\":316:355   */\n  tag_30\n    /* \"#utility.yul\":348:354   */\n  dup5\n    /* \"#utility.yul\":343:346   */\n  dup3\n    /* \"#utility.yul\":338:341   */\n  dup6\n    /* \"#utility.yul\":316:355   */\n  tag_31\n  jump\t// in\ntag_30:\n    /* \"#utility.yul\":102:361   */\n  pop\n  swap4\n  swap3\n  pop\n  pop\n  pop\n  jump\t// out\n    /* \"#utility.yul\":381:669   */\ntag_32:\n  0x00\n    /* \"#utility.yul\":497:500   */\n  dup3\n    /* \"#utility.yul\":490:494   */\n  0x1f\n    /* \"#utility.yul\":482:488   */\n  dup4\n    /* \"#utility.yul\":478:495   */\n  add\n    /* \"#utility.yul\":474:501   */\n  slt\n    /* \"#utility.yul\":464:466   */\n  tag_34\n  jumpi\n    /* \"#utility.yul\":515:516   */\n  0x00\n    /* \"#utility.yul\":512:513   */\n  dup1\n    /* \"#utility.yul\":505:517   */\n  revert\n    /* \"#utility.yul\":464:466   */\ntag_34:\n    /* \"#utility.yul\":548:554   */\n  dup2\n    /* \"#utility.yul\":542:555   */\n  mload\n    /* \"#utility.yul\":573:663   */\n  tag_35\n    /* \"#utility.yul\":659:662   */\n  dup5\n    /* \"#utility.yul\":651:657   */\n  dup3\n    /* \"#utility.yul\":644:648   */\n  0x20\n    /* \"#utility.yul\":636:642   */\n  dup7\n    /* \"#utility.yul\":632:649   */\n  add\n    /* \"#utility.yul\":573:663   */\n  tag_23\n  jump\t// in\ntag_35:\n    /* \"#utility.yul\":564:663   */\n  swap2\n  pop\n    /* \"#utility.yul\":454:669   */\n  pop\n  swap3\n  swap2\n  pop\n  pop\n  jump\t// out\n    /* \"#utility.yul\":675:818   */\ntag_36:\n  0x00\n    /* \"#utility.yul\":763:769   */\n  dup2\n    /* \"#utility.yul\":757:770   */\n  mload\n    /* \"#utility.yul\":748:770   */\n  swap1\n  pop\n    /* \"#utility.yul\":779:812   */\n  tag_38\n    /* \"#utility.yul\":806:811   */\n  dup2\n    /* \"#utility.yul\":779:812   */\n  tag_39\n  jump\t// in\ntag_38:\n    /* \"#utility.yul\":738:818   */\n  swap3\n  swap2\n  pop\n  pop\n  jump\t// out\n    /* \"#utility.yul\":824:1895   */\ntag_3:\n  0x00\n  dup1\n  0x00\n  dup1\n    /* \"#utility.yul\":1024:1027   */\n  0x80\n    /* \"#utility.yul\":1012:1021   */\n  dup6\n    /* \"#utility.yul\":1003:1010   */\n  dup8\n    /* \"#utility.yul\":999:1022   */\n  sub\n    /* \"#utility.yul\":995:1028   */\n  slt\n    /* \"#utility.yul\":992:994   */\n  iszero\n  tag_41\n  jumpi\n    /* \"#utility.yul\":1041:1042   */\n  0x00\n    /* \"#utility.yul\":1038:1039   */\n  dup1\n    /* \"#utility.yul\":1031:1043   */\n  revert\n    /* \"#utility.yul\":992:994   */\ntag_41:\n    /* \"#utility.yul\":1105:1106   */\n  0x00\n    /* \"#utility.yul\":1094:1103   */\n  dup6\n    /* \"#utility.yul\":1090:1107   */\n  add\n    /* \"#utility.yul\":1084:1108   */\n  mload\n    /* \"#utility.yul\":1135:1153   */\n  0xffffffffffffffff\n    /* \"#utility.yul\":1127:1133   */\n  dup2\n    /* \"#utility.yul\":1124:1154   */\n  gt\n    /* \"#utility.yul\":1121:1123   */\n  iszero\n  tag_42\n  jumpi\n    /* \"#utility.yul\":1167:1168   */\n  0x00\n    /* \"#utility.yul\":1164:1165   */\n  dup1\n    /* \"#utility.yul\":1157:1169   */\n  revert\n    /* \"#utility.yul\":1121:1123   */\ntag_42:\n    /* \"#utility.yul\":1195:1269   */\n  tag_43\n    /* \"#utility.yul\":1261:1268   */\n  dup8\n    /* \"#utility.yul\":1252:1258   */\n  dup3\n    /* \"#utility.yul\":1241:1250   */\n  dup9\n    /* \"#utility.yul\":1237:1259   */\n  add\n    /* \"#utility.yul\":1195:1269   */\n  tag_32\n  jump\t// in\ntag_43:\n    /* \"#utility.yul\":1185:1269   */\n  swap5\n  pop\n    /* \"#utility.yul\":1055:1279   */\n  pop\n    /* \"#utility.yul\":1339:1341   */\n  0x20\n    /* \"#utility.yul\":1328:1337   */\n  dup6\n    /* \"#utility.yul\":1324:1342   */\n  add\n    /* \"#utility.yul\":1318:1343   */\n  mload\n    /* \"#utility.yul\":1370:1388   */\n  0xffffffffffffffff\n    /* \"#utility.yul\":1362:1368   */\n  dup2\n    /* \"#utility.yul\":1359:1389   */\n  gt\n    /* \"#utility.yul\":1356:1358   */\n  iszero\n  tag_44\n  jumpi\n    /* \"#utility.yul\":1402:1403   */\n  0x00\n    /* \"#utility.yul\":1399:1400   */\n  dup1\n    /* \"#utility.yul\":1392:1404   */\n  revert\n    /* \"#utility.yul\":1356:1358   */\ntag_44:\n    /* \"#utility.yul\":1430:1504   */\n  tag_45\n    /* \"#utility.yul\":1496:1503   */\n  dup8\n    /* \"#utility.yul\":1487:1493   */\n  dup3\n    /* \"#utility.yul\":1476:1485   */\n  dup9\n    /* \"#utility.yul\":1472:1494   */\n  add\n    /* \"#utility.yul\":1430:1504   */\n  tag_32\n  jump\t// in\ntag_45:\n    /* \"#utility.yul\":1420:1504   */\n  swap4\n  pop\n    /* \"#utility.yul\":1289:1514   */\n  pop\n    /* \"#utility.yul\":1574:1576   */\n  0x40\n    /* \"#utility.yul\":1563:1572   */\n  dup6\n    /* \"#utility.yul\":1559:1577   */\n  add\n    /* \"#utility.yul\":1553:1578   */\n  mload\n    /* \"#utility.yul\":1605:1623   */\n  0xffffffffffffffff\n    /* \"#utility.yul\":1597:1603   */\n  dup2\n    /* \"#utility.yul\":1594:1624   */\n  gt\n    /* \"#utility.yul\":1591:1593   */\n  iszero\n  tag_46\n  jumpi\n    /* \"#utility.yul\":1637:1638   */\n  0x00\n    /* \"#utility.yul\":1634:1635   */\n  dup1\n    /* \"#utility.yul\":1627:1639   */\n  revert\n    /* \"#utility.yul\":1591:1593   */\ntag_46:\n    /* \"#utility.yul\":1665:1739   */\n  tag_47\n    /* \"#utility.yul\":1731:1738   */\n  dup8\n    /* \"#utility.yul\":1722:1728   */\n  dup3\n    /* \"#utility.yul\":1711:1720   */\n  dup9\n    /* \"#utility.yul\":1707:1729   */\n  add\n    /* \"#utility.yul\":1665:1739   */\n  tag_32\n  jump\t// in\ntag_47:\n    /* \"#utility.yul\":1655:1739   */\n  swap3\n  pop\n    /* \"#utility.yul\":1524:1749   */\n  pop\n    /* \"#utility.yul\":1788:1790   */\n  0x60\n    /* \"#utility.yul\":1814:1878   */\n  tag_48\n    /* \"#utility.yul\":1870:1877   */\n  dup8\n    /* \"#utility.yul\":1861:1867   */\n  dup3\n    /* \"#utility.yul\":1850:1859   */\n  dup9\n    /* \"#utility.yul\":1846:1868   */\n  add\n    /* \"#utility.yul\":1814:1878   */\n  tag_36\n  jump\t// in\ntag_48:\n    /* \"#utility.yul\":1804:1878   */\n  swap2\n  pop\n    /* \"#utility.yul\":1759:1888   */\n  pop\n    /* \"#utility.yul\":982:1895   */\n  swap3\n  swap6\n  swap2\n  swap5\n  pop\n  swap3\n  pop\n  jump\t// out\n    /* \"#utility.yul\":1901:2030   */\ntag_28:\n  0x00\n    /* \"#utility.yul\":1962:1982   */\n  tag_50\n  tag_51\n  jump\t// in\ntag_50:\n    /* \"#utility.yul\":1952:1982   */\n  swap1\n  pop\n    /* \"#utility.yul\":1991:2024   */\n  tag_52\n    /* \"#utility.yul\":2019:2023   */\n  dup3\n    /* \"#utility.yul\":2011:2017   */\n  dup3\n    /* \"#utility.yul\":1991:2024   */\n  tag_53\n  jump\t// in\ntag_52:\n    /* \"#utility.yul\":1942:2030   */\n  swap2\n  swap1\n  pop\n  jump\t// out\n    /* \"#utility.yul\":2036:2111   */\ntag_51:\n  0x00\n    /* \"#utility.yul\":2102:2104   */\n  0x40\n    /* \"#utility.yul\":2096:2105   */\n  mload\n    /* \"#utility.yul\":2086:2105   */\n  swap1\n  pop\n    /* \"#utility.yul\":2076:2111   */\n  swap1\n  jump\t// out\n    /* \"#utility.yul\":2117:2425   */\ntag_27:\n  0x00\n    /* \"#utility.yul\":2269:2287   */\n  0xffffffffffffffff\n    /* \"#utility.yul\":2261:2267   */\n  dup3\n    /* \"#utility.yul\":2258:2288   */\n  gt\n    /* \"#utility.yul\":2255:2257   */\n  iszero\n  tag_56\n  jumpi\n    /* \"#utility.yul\":2291:2309   */\n  tag_57\n  tag_58\n  jump\t// in\ntag_57:\n    /* \"#utility.yul\":2255:2257   */\ntag_56:\n    /* \"#utility.yul\":2329:2358   */\n  tag_59\n    /* \"#utility.yul\":2351:2357   */\n  dup3\n    /* \"#utility.yul\":2329:2358   */\n  tag_60\n  jump\t// in\ntag_59:\n    /* \"#utility.yul\":2321:2358   */\n  swap1\n  pop\n    /* \"#utility.yul\":2413:2417   */\n  0x20\n    /* \"#utility.yul\":2407:2411   */\n  dup2\n    /* \"#utility.yul\":2403:2418   */\n  add\n    /* \"#utility.yul\":2395:2418   */\n  swap1\n  pop\n    /* \"#utility.yul\":2184:2425   */\n  swap2\n  swap1\n  pop\n  jump\t// out\n    /* \"#utility.yul\":2431:2508   */\ntag_61:\n  0x00\n    /* \"#utility.yul\":2497:2502   */\n  dup2\n    /* \"#utility.yul\":2486:2502   */\n  swap1\n  pop\n    /* \"#utility.yul\":2476:2508   */\n  swap2\n  swap1\n  pop\n  jump\t// out\n    /* \"#utility.yul\":2514:2821   */\ntag_31:\n    /* \"#utility.yul\":2582:2583   */\n  0x00\n    /* \"#utility.yul\":2592:2705   */\ntag_64:\n    /* \"#utility.yul\":2606:2612   */\n  dup4\n    /* \"#utility.yul\":2603:2604   */\n  dup2\n    /* \"#utility.yul\":2600:2613   */\n  lt\n    /* \"#utility.yul\":2592:2705   */\n  iszero\n  tag_66\n  jumpi\n    /* \"#utility.yul\":2691:2692   */\n  dup1\n    /* \"#utility.yul\":2686:2689   */\n  dup3\n    /* \"#utility.yul\":2682:2693   */\n  add\n    /* \"#utility.yul\":2676:2694   */\n  mload\n    /* \"#utility.yul\":2672:2673   */\n  dup2\n    /* \"#utility.yul\":2667:2670   */\n  dup5\n    /* \"#utility.yul\":2663:2674   */\n  add\n    /* \"#utility.yul\":2656:2695   */\n  mstore\n    /* \"#utility.yul\":2628:2630   */\n  0x20\n    /* \"#utility.yul\":2625:2626   */\n  dup2\n    /* \"#utility.yul\":2621:2631   */\n  add\n    /* \"#utility.yul\":2616:2631   */\n  swap1\n  pop\n    /* \"#utility.yul\":2592:2705   */\n  jump(tag_64)\ntag_66:\n    /* \"#utility.yul\":2723:2729   */\n  dup4\n    /* \"#utility.yul\":2720:2721   */\n  dup2\n    /* \"#utility.yul\":2717:2730   */\n  gt\n    /* \"#utility.yul\":2714:2716   */\n  iszero\n  tag_67\n  jumpi\n    /* \"#utility.yul\":2803:2804   */\n  0x00\n    /* \"#utility.yul\":2794:2800   */\n  dup5\n    /* \"#utility.yul\":2789:2792   */\n  dup5\n    /* \"#utility.yul\":2785:2801   */\n  add\n    /* \"#utility.yul\":2778:2805   */\n  mstore\n    /* \"#utility.yul\":2714:2716   */\ntag_67:\n    /* \"#utility.yul\":2563:2821   */\n  pop\n  pop\n  pop\n  pop\n  jump\t// out\n    /* \"#utility.yul\":2827:3147   */\ntag_12:\n  0x00\n    /* \"#utility.yul\":2908:2909   */\n  0x02\n    /* \"#utility.yul\":2902:2906   */\n  dup3\n    /* \"#utility.yul\":2898:2910   */\n  div\n    /* \"#utility.yul\":2888:2910   */\n  swap1\n  pop\n    /* \"#utility.yul\":2955:2956   */\n  0x01\n    /* \"#utility.yul\":2949:2953   */\n  dup3\n    /* \"#utility.yul\":2945:2957   */\n  and\n    /* \"#utility.yul\":2976:2994   */\n  dup1\n    /* \"#utility.yul\":2966:2968   */\n  tag_69\n  jumpi\n    /* \"#utility.yul\":3032:3036   */\n  0x7f\n    /* \"#utility.yul\":3024:3030   */\n  dup3\n    /* \"#utility.yul\":3020:3037   */\n  and\n    /* \"#utility.yul\":3010:3037   */\n  swap2\n  pop\n    /* \"#utility.yul\":2966:2968   */\ntag_69:\n    /* \"#utility.yul\":3094:3096   */\n  0x20\n    /* \"#utility.yul\":3086:3092   */\n  dup3\n    /* \"#utility.yul\":3083:3097   */\n  lt\n    /* \"#utility.yul\":3063:3081   */\n  dup2\n    /* \"#utility.yul\":3060:3098   */\n  eq\n    /* \"#utility.yul\":3057:3059   */\n  iszero\n  tag_70\n  jumpi\n    /* \"#utility.yul\":3113:3131   */\n  tag_71\n  tag_72\n  jump\t// in\ntag_71:\n    /* \"#utility.yul\":3057:3059   */\ntag_70:\n    /* \"#utility.yul\":2878:3147   */\n  pop\n  swap2\n  swap1\n  pop\n  jump\t// out\n    /* \"#utility.yul\":3153:3434   */\ntag_53:\n    /* \"#utility.yul\":3236:3263   */\n  tag_74\n    /* \"#utility.yul\":3258:3262   */\n  dup3\n    /* \"#utility.yul\":3236:3263   */\n  tag_60\n  jump\t// in\ntag_74:\n    /* \"#utility.yul\":3228:3234   */\n  dup2\n    /* \"#utility.yul\":3224:3264   */\n  add\n    /* \"#utility.yul\":3366:3372   */\n  dup2\n    /* \"#utility.yul\":3354:3364   */\n  dup2\n    /* \"#utility.yul\":3351:3373   */\n  lt\n    /* \"#utility.yul\":3330:3348   */\n  0xffffffffffffffff\n    /* \"#utility.yul\":3318:3328   */\n  dup3\n    /* \"#utility.yul\":3315:3349   */\n  gt\n    /* \"#utility.yul\":3312:3374   */\n  or\n    /* \"#utility.yul\":3309:3311   */\n  iszero\n  tag_75\n  jumpi\n    /* \"#utility.yul\":3377:3395   */\n  tag_76\n  tag_58\n  jump\t// in\ntag_76:\n    /* \"#utility.yul\":3309:3311   */\ntag_75:\n    /* \"#utility.yul\":3417:3427   */\n  dup1\n    /* \"#utility.yul\":3413:3415   */\n  0x40\n    /* \"#utility.yul\":3406:3428   */\n  mstore\n    /* \"#utility.yul\":3196:3434   */\n  pop\n  pop\n  pop\n  jump\t// out\n    /* \"#utility.yul\":3440:3620   */\ntag_72:\n    /* \"#utility.yul\":3488:3565   */\n  0x4e487b7100000000000000000000000000000000000000000000000000000000\n    /* \"#utility.yul\":3485:3486   */\n  0x00\n    /* \"#utility.yul\":3478:3566   */\n  mstore\n    /* \"#utility.yul\":3585:3589   */\n  0x22\n    /* \"#utility.yul\":3582:3583   */\n  0x04\n    /* \"#utility.yul\":3575:3590   */\n  mstore\n    /* \"#utility.yul\":3609:3613   */\n  0x24\n    /* \"#utility.yul\":3606:3607   */\n  0x00\n    /* \"#utility.yul\":3599:3614   */\n  revert\n    /* \"#utility.yul\":3626:3806   */\ntag_58:\n    /* \"#utility.yul\":3674:3751   */\n  0x4e487b7100000000000000000000000000000000000000000000000000000000\n    /* \"#utility.yul\":3671:3672   */\n  0x00\n    /* \"#utility.yul\":3664:3752   */\n  mstore\n    /* \"#utility.yul\":3771:3775   */\n  0x41\n    /* \"#utility.yul\":3768:3769   */\n  0x04\n    /* \"#utility.yul\":3761:3776   */\n  mstore\n    /* \"#utility.yul\":3795:3799   */\n  0x24\n    /* \"#utility.yul\":3792:3793   */\n  0x00\n    /* \"#utility.yul\":3785:3800   */\n  revert\n    /* \"#utility.yul\":3812:3914   */\ntag_60:\n  0x00\n    /* \"#utility.yul\":3904:3906   */\n  0x1f\n    /* \"#utility.yul\":3900:3907   */\n  not\n    /* \"#utility.yul\":3895:3897   */\n  0x1f\n    /* \"#utility.yul\":3888:3893   */\n  dup4\n    /* \"#utility.yul\":3884:3898   */\n  add\n    /* \"#utility.yul\":3880:3908   */\n  and\n    /* \"#utility.yul\":3870:3908   */\n  swap1\n  pop\n    /* \"#utility.yul\":3860:3914   */\n  swap2\n  swap1\n  pop\n  jump\t// out\n    /* \"#utility.yul\":3920:4042   */\ntag_39:\n    /* \"#utility.yul\":3993:4017   */\n  tag_81\n    /* \"#utility.yul\":4011:4016   */\n  dup2\n    /* \"#utility.yul\":3993:4017   */\n  tag_61\n  jump\t// in\ntag_81:\n    /* \"#utility.yul\":3986:3991   */\n  dup2\n    /* \"#utility.yul\":3983:4018   */\n  eq\n    /* \"#utility.yul\":3973:3975   */\n  tag_82\n  jumpi\n    /* \"#utility.yul\":4032:4033   */\n  0x00\n    /* \"#utility.yul\":4029:4030   */\n  dup1\n    /* \"#utility.yul\":4022:4034   */\n  revert\n    /* \"#utility.yul\":3973:3975   */\ntag_82:\n    /* \"#utility.yul\":3963:4042   */\n  pop\n  jump\t// out\n    /* \"Contracts/ElevenEpisode.sol\":62:712  contract ElevenEpisode{ \r... */\ntag_10:\n  dataSize(sub_0)\n  dup1\n  dataOffset(sub_0)\n  0x00\n  codecopy\n  0x00\n  return\nstop\n\nsub_0: assembly {\n        /* \"Contracts/ElevenEpisode.sol\":62:712  contract ElevenEpisode{ \r... */\n      mstore(0x40, 0x80)\n      jumpi(tag_1, lt(calldatasize, 0x04))\n      shr(0xe0, calldataload(0x00))\n      dup1\n      0x06fdde03\n      eq\n      tag_2\n      jumpi\n      dup1\n      0x48c981e2\n      eq\n      tag_3\n      jumpi\n      dup1\n      0xa6c3e6b9\n      eq\n      tag_4\n      jumpi\n      dup1\n      0xaf640d0f\n      eq\n      tag_5\n      jumpi\n    tag_1:\n      0x00\n      dup1\n      revert\n        /* \"Contracts/ElevenEpisode.sol\":117:135  string public name */\n    tag_2:\n      callvalue\n      dup1\n      iszero\n      tag_6\n      jumpi\n      0x00\n      dup1\n      revert\n    tag_6:\n      pop\n      tag_7\n      tag_8\n      jump\t// in\n    tag_7:\n      mload(0x40)\n      tag_9\n      swap2\n      swap1\n      tag_10\n      jump\t// in\n    tag_9:\n      mload(0x40)\n      dup1\n      swap2\n      sub\n      swap1\n      return\n        /* \"Contracts/ElevenEpisode.sol\":583:700  function sendEther(address payable receiver) public payable {\r... */\n    tag_3:\n      tag_11\n      0x04\n      dup1\n      calldatasize\n      sub\n      dup2\n      add\n      swap1\n      tag_12\n      swap2\n      swap1\n      tag_13\n      jump\t// in\n    tag_12:\n      tag_14\n      jump\t// in\n    tag_11:\n      stop\n        /* \"Contracts/ElevenEpisode.sol\":196:217  address public author */\n    tag_4:\n      callvalue\n      dup1\n      iszero\n      tag_15\n      jumpi\n      0x00\n      dup1\n      revert\n    tag_15:\n      pop\n      tag_16\n      tag_17\n      jump\t// in\n    tag_16:\n      mload(0x40)\n      tag_18\n      swap2\n      swap1\n      tag_19\n      jump\t// in\n    tag_18:\n      mload(0x40)\n      dup1\n      swap2\n      sub\n      swap1\n      return\n        /* \"Contracts/ElevenEpisode.sol\":94:110  string public id */\n    tag_5:\n      callvalue\n      dup1\n      iszero\n      tag_20\n      jumpi\n      0x00\n      dup1\n      revert\n    tag_20:\n      pop\n      tag_21\n      tag_22\n      jump\t// in\n    tag_21:\n      mload(0x40)\n      tag_23\n      swap2\n      swap1\n      tag_10\n      jump\t// in\n    tag_23:\n      mload(0x40)\n      dup1\n      swap2\n      sub\n      swap1\n      return\n        /* \"Contracts/ElevenEpisode.sol\":117:135  string public name */\n    tag_8:\n      0x01\n      dup1\n      sload\n      tag_24\n      swap1\n      tag_25\n      jump\t// in\n    tag_24:\n      dup1\n      0x1f\n      add\n      0x20\n      dup1\n      swap2\n      div\n      mul\n      0x20\n      add\n      mload(0x40)\n      swap1\n      dup2\n      add\n      0x40\n      mstore\n      dup1\n      swap3\n      swap2\n      swap1\n      dup2\n      dup2\n      mstore\n      0x20\n      add\n      dup3\n      dup1\n      sload\n      tag_26\n      swap1\n      tag_25\n      jump\t// in\n    tag_26:\n      dup1\n      iszero\n      tag_27\n      jumpi\n      dup1\n      0x1f\n      lt\n      tag_28\n      jumpi\n      0x0100\n      dup1\n      dup4\n      sload\n      div\n      mul\n      dup4\n      mstore\n      swap2\n      0x20\n      add\n      swap2\n      jump(tag_27)\n    tag_28:\n      dup3\n      add\n      swap2\n      swap1\n      0x00\n      mstore\n      keccak256(0x00, 0x20)\n      swap1\n    tag_29:\n      dup2\n      sload\n      dup2\n      mstore\n      swap1\n      0x01\n      add\n      swap1\n      0x20\n      add\n      dup1\n      dup4\n      gt\n      tag_29\n      jumpi\n      dup3\n      swap1\n      sub\n      0x1f\n      and\n      dup3\n      add\n      swap2\n    tag_27:\n      pop\n      pop\n      pop\n      pop\n      pop\n      dup2\n      jump\t// out\n        /* \"Contracts/ElevenEpisode.sol\":583:700  function sendEther(address payable receiver) public payable {\r... */\n    tag_14:\n        /* \"Contracts/ElevenEpisode.sol\":654:662  receiver */\n      dup1\n        /* \"Contracts/ElevenEpisode.sol\":654:671  receiver.transfer */\n      0xffffffffffffffffffffffffffffffffffffffff\n      and\n        /* \"Contracts/ElevenEpisode.sol\":654:682  receiver.transfer(msg.value) */\n      0x08fc\n        /* \"Contracts/ElevenEpisode.sol\":672:681  msg.value */\n      callvalue\n        /* \"Contracts/ElevenEpisode.sol\":654:682  receiver.transfer(msg.value) */\n      swap1\n      dup2\n      iszero\n      mul\n      swap1\n      mload(0x40)\n      0x00\n      mload(0x40)\n      dup1\n      dup4\n      sub\n      dup2\n      dup6\n      dup9\n      dup9\n      call\n      swap4\n      pop\n      pop\n      pop\n      pop\n      iszero\n      dup1\n      iszero\n      tag_32\n      jumpi\n      returndatasize\n      0x00\n      dup1\n      returndatacopy\n      revert(0x00, returndatasize)\n    tag_32:\n      pop\n        /* \"Contracts/ElevenEpisode.sol\":583:700  function sendEther(address payable receiver) public payable {\r... */\n      pop\n      jump\t// out\n        /* \"Contracts/ElevenEpisode.sol\":196:217  address public author */\n    tag_17:\n      0x04\n      0x00\n      swap1\n      sload\n      swap1\n      0x0100\n      exp\n      swap1\n      div\n      0xffffffffffffffffffffffffffffffffffffffff\n      and\n      dup2\n      jump\t// out\n        /* \"Contracts/ElevenEpisode.sol\":94:110  string public id */\n    tag_22:\n      0x00\n      dup1\n      sload\n      tag_33\n      swap1\n      tag_25\n      jump\t// in\n    tag_33:\n      dup1\n      0x1f\n      add\n      0x20\n      dup1\n      swap2\n      div\n      mul\n      0x20\n      add\n      mload(0x40)\n      swap1\n      dup2\n      add\n      0x40\n      mstore\n      dup1\n      swap3\n      swap2\n      swap1\n      dup2\n      dup2\n      mstore\n      0x20\n      add\n      dup3\n      dup1\n      sload\n      tag_34\n      swap1\n      tag_25\n      jump\t// in\n    tag_34:\n      dup1\n      iszero\n      tag_35\n      jumpi\n      dup1\n      0x1f\n      lt\n      tag_36\n      jumpi\n      0x0100\n      dup1\n      dup4\n      sload\n      div\n      mul\n      dup4\n      mstore\n      swap2\n      0x20\n      add\n      swap2\n      jump(tag_35)\n    tag_36:\n      dup3\n      add\n      swap2\n      swap1\n      0x00\n      mstore\n      keccak256(0x00, 0x20)\n      swap1\n    tag_37:\n      dup2\n      sload\n      dup2\n      mstore\n      swap1\n      0x01\n      add\n      swap1\n      0x20\n      add\n      dup1\n      dup4\n      gt\n      tag_37\n      jumpi\n      dup3\n      swap1\n      sub\n      0x1f\n      and\n      dup3\n      add\n      swap2\n    tag_35:\n      pop\n      pop\n      pop\n      pop\n      pop\n      dup2\n      jump\t// out\n        /* \"#utility.yul\":7:162   */\n    tag_39:\n      0x00\n        /* \"#utility.yul\":99:105   */\n      dup2\n        /* \"#utility.yul\":86:106   */\n      calldataload\n        /* \"#utility.yul\":77:106   */\n      swap1\n      pop\n        /* \"#utility.yul\":115:156   */\n      tag_41\n        /* \"#utility.yul\":150:155   */\n      dup2\n        /* \"#utility.yul\":115:156   */\n      tag_42\n      jump\t// in\n    tag_41:\n        /* \"#utility.yul\":67:162   */\n      swap3\n      swap2\n      pop\n      pop\n      jump\t// out\n        /* \"#utility.yul\":168:446   */\n    tag_13:\n      0x00\n        /* \"#utility.yul\":284:286   */\n      0x20\n        /* \"#utility.yul\":272:281   */\n      dup3\n        /* \"#utility.yul\":263:270   */\n      dup5\n        /* \"#utility.yul\":259:282   */\n      sub\n        /* \"#utility.yul\":255:287   */\n      slt\n        /* \"#utility.yul\":252:254   */\n      iszero\n      tag_44\n      jumpi\n        /* \"#utility.yul\":300:301   */\n      0x00\n        /* \"#utility.yul\":297:298   */\n      dup1\n        /* \"#utility.yul\":290:302   */\n      revert\n        /* \"#utility.yul\":252:254   */\n    tag_44:\n        /* \"#utility.yul\":343:344   */\n      0x00\n        /* \"#utility.yul\":368:429   */\n      tag_45\n        /* \"#utility.yul\":421:428   */\n      dup5\n        /* \"#utility.yul\":412:418   */\n      dup3\n        /* \"#utility.yul\":401:410   */\n      dup6\n        /* \"#utility.yul\":397:419   */\n      add\n        /* \"#utility.yul\":368:429   */\n      tag_39\n      jump\t// in\n    tag_45:\n        /* \"#utility.yul\":358:429   */\n      swap2\n      pop\n        /* \"#utility.yul\":314:439   */\n      pop\n        /* \"#utility.yul\":242:446   */\n      swap3\n      swap2\n      pop\n      pop\n      jump\t// out\n        /* \"#utility.yul\":452:570   */\n    tag_46:\n        /* \"#utility.yul\":539:563   */\n      tag_48\n        /* \"#utility.yul\":557:562   */\n      dup2\n        /* \"#utility.yul\":539:563   */\n      tag_49\n      jump\t// in\n    tag_48:\n        /* \"#utility.yul\":534:537   */\n      dup3\n        /* \"#utility.yul\":527:564   */\n      mstore\n        /* \"#utility.yul\":517:570   */\n      pop\n      pop\n      jump\t// out\n        /* \"#utility.yul\":576:940   */\n    tag_50:\n      0x00\n        /* \"#utility.yul\":692:731   */\n      tag_52\n        /* \"#utility.yul\":725:730   */\n      dup3\n        /* \"#utility.yul\":692:731   */\n      tag_53\n      jump\t// in\n    tag_52:\n        /* \"#utility.yul\":747:818   */\n      tag_54\n        /* \"#utility.yul\":811:817   */\n      dup2\n        /* \"#utility.yul\":806:809   */\n      dup6\n        /* \"#utility.yul\":747:818   */\n      tag_55\n      jump\t// in\n    tag_54:\n        /* \"#utility.yul\":740:818   */\n      swap4\n      pop\n        /* \"#utility.yul\":827:879   */\n      tag_56\n        /* \"#utility.yul\":872:878   */\n      dup2\n        /* \"#utility.yul\":867:870   */\n      dup6\n        /* \"#utility.yul\":860:864   */\n      0x20\n        /* \"#utility.yul\":853:858   */\n      dup7\n        /* \"#utility.yul\":849:865   */\n      add\n        /* \"#utility.yul\":827:879   */\n      tag_57\n      jump\t// in\n    tag_56:\n        /* \"#utility.yul\":904:933   */\n      tag_58\n        /* \"#utility.yul\":926:932   */\n      dup2\n        /* \"#utility.yul\":904:933   */\n      tag_59\n      jump\t// in\n    tag_58:\n        /* \"#utility.yul\":899:902   */\n      dup5\n        /* \"#utility.yul\":895:934   */\n      add\n        /* \"#utility.yul\":888:934   */\n      swap2\n      pop\n        /* \"#utility.yul\":668:940   */\n      pop\n      swap3\n      swap2\n      pop\n      pop\n      jump\t// out\n        /* \"#utility.yul\":946:1168   */\n    tag_19:\n      0x00\n        /* \"#utility.yul\":1077:1079   */\n      0x20\n        /* \"#utility.yul\":1066:1075   */\n      dup3\n        /* \"#utility.yul\":1062:1080   */\n      add\n        /* \"#utility.yul\":1054:1080   */\n      swap1\n      pop\n        /* \"#utility.yul\":1090:1161   */\n      tag_61\n        /* \"#utility.yul\":1158:1159   */\n      0x00\n        /* \"#utility.yul\":1147:1156   */\n      dup4\n        /* \"#utility.yul\":1143:1160   */\n      add\n        /* \"#utility.yul\":1134:1140   */\n      dup5\n        /* \"#utility.yul\":1090:1161   */\n      tag_46\n      jump\t// in\n    tag_61:\n        /* \"#utility.yul\":1044:1168   */\n      swap3\n      swap2\n      pop\n      pop\n      jump\t// out\n        /* \"#utility.yul\":1174:1487   */\n    tag_10:\n      0x00\n        /* \"#utility.yul\":1325:1327   */\n      0x20\n        /* \"#utility.yul\":1314:1323   */\n      dup3\n        /* \"#utility.yul\":1310:1328   */\n      add\n        /* \"#utility.yul\":1302:1328   */\n      swap1\n      pop\n        /* \"#utility.yul\":1374:1383   */\n      dup2\n        /* \"#utility.yul\":1368:1372   */\n      dup2\n        /* \"#utility.yul\":1364:1384   */\n      sub\n        /* \"#utility.yul\":1360:1361   */\n      0x00\n        /* \"#utility.yul\":1349:1358   */\n      dup4\n        /* \"#utility.yul\":1345:1362   */\n      add\n        /* \"#utility.yul\":1338:1385   */\n      mstore\n        /* \"#utility.yul\":1402:1480   */\n      tag_63\n        /* \"#utility.yul\":1475:1479   */\n      dup2\n        /* \"#utility.yul\":1466:1472   */\n      dup5\n        /* \"#utility.yul\":1402:1480   */\n      tag_50\n      jump\t// in\n    tag_63:\n        /* \"#utility.yul\":1394:1480   */\n      swap1\n      pop\n        /* \"#utility.yul\":1292:1487   */\n      swap3\n      swap2\n      pop\n      pop\n      jump\t// out\n        /* \"#utility.yul\":1493:1592   */\n    tag_53:\n      0x00\n        /* \"#utility.yul\":1579:1584   */\n      dup2\n        /* \"#utility.yul\":1573:1585   */\n      mload\n        /* \"#utility.yul\":1563:1585   */\n      swap1\n      pop\n        /* \"#utility.yul\":1552:1592   */\n      swap2\n      swap1\n      pop\n      jump\t// out\n        /* \"#utility.yul\":1598:1767   */\n    tag_55:\n      0x00\n        /* \"#utility.yul\":1716:1722   */\n      dup3\n        /* \"#utility.yul\":1711:1714   */\n      dup3\n        /* \"#utility.yul\":1704:1723   */\n      mstore\n        /* \"#utility.yul\":1756:1760   */\n      0x20\n        /* \"#utility.yul\":1751:1754   */\n      dup3\n        /* \"#utility.yul\":1747:1761   */\n      add\n        /* \"#utility.yul\":1732:1761   */\n      swap1\n      pop\n        /* \"#utility.yul\":1694:1767   */\n      swap3\n      swap2\n      pop\n      pop\n      jump\t// out\n        /* \"#utility.yul\":1773:1869   */\n    tag_49:\n      0x00\n        /* \"#utility.yul\":1839:1863   */\n      tag_67\n        /* \"#utility.yul\":1857:1862   */\n      dup3\n        /* \"#utility.yul\":1839:1863   */\n      tag_68\n      jump\t// in\n    tag_67:\n        /* \"#utility.yul\":1828:1863   */\n      swap1\n      pop\n        /* \"#utility.yul\":1818:1869   */\n      swap2\n      swap1\n      pop\n      jump\t// out\n        /* \"#utility.yul\":1875:1979   */\n    tag_69:\n      0x00\n        /* \"#utility.yul\":1949:1973   */\n      tag_71\n        /* \"#utility.yul\":1967:1972   */\n      dup3\n        /* \"#utility.yul\":1949:1973   */\n      tag_68\n      jump\t// in\n    tag_71:\n        /* \"#utility.yul\":1938:1973   */\n      swap1\n      pop\n        /* \"#utility.yul\":1928:1979   */\n      swap2\n      swap1\n      pop\n      jump\t// out\n        /* \"#utility.yul\":1985:2111   */\n    tag_68:\n      0x00\n        /* \"#utility.yul\":2062:2104   */\n      0xffffffffffffffffffffffffffffffffffffffff\n        /* \"#utility.yul\":2055:2060   */\n      dup3\n        /* \"#utility.yul\":2051:2105   */\n      and\n        /* \"#utility.yul\":2040:2105   */\n      swap1\n      pop\n        /* \"#utility.yul\":2030:2111   */\n      swap2\n      swap1\n      pop\n      jump\t// out\n        /* \"#utility.yul\":2117:2424   */\n    tag_57:\n        /* \"#utility.yul\":2185:2186   */\n      0x00\n        /* \"#utility.yul\":2195:2308   */\n    tag_74:\n        /* \"#utility.yul\":2209:2215   */\n      dup4\n        /* \"#utility.yul\":2206:2207   */\n      dup2\n        /* \"#utility.yul\":2203:2216   */\n      lt\n        /* \"#utility.yul\":2195:2308   */\n      iszero\n      tag_76\n      jumpi\n        /* \"#utility.yul\":2294:2295   */\n      dup1\n        /* \"#utility.yul\":2289:2292   */\n      dup3\n        /* \"#utility.yul\":2285:2296   */\n      add\n        /* \"#utility.yul\":2279:2297   */\n      mload\n        /* \"#utility.yul\":2275:2276   */\n      dup2\n        /* \"#utility.yul\":2270:2273   */\n      dup5\n        /* \"#utility.yul\":2266:2277   */\n      add\n        /* \"#utility.yul\":2259:2298   */\n      mstore\n        /* \"#utility.yul\":2231:2233   */\n      0x20\n        /* \"#utility.yul\":2228:2229   */\n      dup2\n        /* \"#utility.yul\":2224:2234   */\n      add\n        /* \"#utility.yul\":2219:2234   */\n      swap1\n      pop\n        /* \"#utility.yul\":2195:2308   */\n      jump(tag_74)\n    tag_76:\n        /* \"#utility.yul\":2326:2332   */\n      dup4\n        /* \"#utility.yul\":2323:2324   */\n      dup2\n        /* \"#utility.yul\":2320:2333   */\n      gt\n        /* \"#utility.yul\":2317:2319   */\n      iszero\n      tag_77\n      jumpi\n        /* \"#utility.yul\":2406:2407   */\n      0x00\n        /* \"#utility.yul\":2397:2403   */\n      dup5\n        /* \"#utility.yul\":2392:2395   */\n      dup5\n        /* \"#utility.yul\":2388:2404   */\n      add\n        /* \"#utility.yul\":2381:2408   */\n      mstore\n        /* \"#utility.yul\":2317:2319   */\n    tag_77:\n        /* \"#utility.yul\":2166:2424   */\n      pop\n      pop\n      pop\n      pop\n      jump\t// out\n        /* \"#utility.yul\":2430:2750   */\n    tag_25:\n      0x00\n        /* \"#utility.yul\":2511:2512   */\n      0x02\n        /* \"#utility.yul\":2505:2509   */\n      dup3\n        /* \"#utility.yul\":2501:2513   */\n      div\n        /* \"#utility.yul\":2491:2513   */\n      swap1\n      pop\n        /* \"#utility.yul\":2558:2559   */\n      0x01\n        /* \"#utility.yul\":2552:2556   */\n      dup3\n        /* \"#utility.yul\":2548:2560   */\n      and\n        /* \"#utility.yul\":2579:2597   */\n      dup1\n        /* \"#utility.yul\":2569:2571   */\n      tag_79\n      jumpi\n        /* \"#utility.yul\":2635:2639   */\n      0x7f\n        /* \"#utility.yul\":2627:2633   */\n      dup3\n        /* \"#utility.yul\":2623:2640   */\n      and\n        /* \"#utility.yul\":2613:2640   */\n      swap2\n      pop\n        /* \"#utility.yul\":2569:2571   */\n    tag_79:\n        /* \"#utility.yul\":2697:2699   */\n      0x20\n        /* \"#utility.yul\":2689:2695   */\n      dup3\n        /* \"#utility.yul\":2686:2700   */\n      lt\n        /* \"#utility.yul\":2666:2684   */\n      dup2\n        /* \"#utility.yul\":2663:2701   */\n      eq\n        /* \"#utility.yul\":2660:2662   */\n      iszero\n      tag_80\n      jumpi\n        /* \"#utility.yul\":2716:2734   */\n      tag_81\n      tag_82\n      jump\t// in\n    tag_81:\n        /* \"#utility.yul\":2660:2662   */\n    tag_80:\n        /* \"#utility.yul\":2481:2750   */\n      pop\n      swap2\n      swap1\n      pop\n      jump\t// out\n        /* \"#utility.yul\":2756:2936   */\n    tag_82:\n        /* \"#utility.yul\":2804:2881   */\n      0x4e487b7100000000000000000000000000000000000000000000000000000000\n        /* \"#utility.yul\":2801:2802   */\n      0x00\n        /* \"#utility.yul\":2794:2882   */\n      mstore\n        /* \"#utility.yul\":2901:2905   */\n      0x22\n        /* \"#utility.yul\":2898:2899   */\n      0x04\n        /* \"#utility.yul\":2891:2906   */\n      mstore\n        /* \"#utility.yul\":2925:2929   */\n      0x24\n        /* \"#utility.yul\":2922:2923   */\n      0x00\n        /* \"#utility.yul\":2915:2930   */\n      revert\n        /* \"#utility.yul\":2942:3044   */\n    tag_59:\n      0x00\n        /* \"#utility.yul\":3034:3036   */\n      0x1f\n        /* \"#utility.yul\":3030:3037   */\n      not\n        /* \"#utility.yul\":3025:3027   */\n      0x1f\n        /* \"#utility.yul\":3018:3023   */\n      dup4\n        /* \"#utility.yul\":3014:3028   */\n      add\n        /* \"#utility.yul\":3010:3038   */\n      and\n        /* \"#utility.yul\":3000:3038   */\n      swap1\n      pop\n        /* \"#utility.yul\":2990:3044   */\n      swap2\n      swap1\n      pop\n      jump\t// out\n        /* \"#utility.yul\":3050:3188   */\n    tag_42:\n        /* \"#utility.yul\":3131:3163   */\n      tag_86\n        /* \"#utility.yul\":3157:3162   */\n      dup2\n        /* \"#utility.yul\":3131:3163   */\n      tag_69\n      jump\t// in\n    tag_86:\n        /* \"#utility.yul\":3124:3129   */\n      dup2\n        /* \"#utility.yul\":3121:3164   */\n      eq\n        /* \"#utility.yul\":3111:3113   */\n      tag_87\n      jumpi\n        /* \"#utility.yul\":3178:3179   */\n      0x00\n        /* \"#utility.yul\":3175:3176   */\n      dup1\n        /* \"#utility.yul\":3168:3180   */\n      revert\n        /* \"#utility.yul\":3111:3113   */\n    tag_87:\n        /* \"#utility.yul\":3101:3188   */\n      pop\n      jump\t// out\n\n    auxdata: 0xa264697066735822122055032b018914726af970ba3659671aca14c530a3c4d4b6af13b665381bf6111364736f6c63430008010033\n}\n",
				"bytecode": {
					"linkReferences": {},
					"object": "60806040523480156200001157600080fd5b50604051620008ea380380620008ea83398181016040528101906200003791906200020d565b83600090805190602001906200004f929190620000d4565b50826001908051906020019062000068929190620000d4565b50816002908051906020019062000081929190620000d4565b508060038190555033600460006101000a81548173ffffffffffffffffffffffffffffffffffffffff021916908373ffffffffffffffffffffffffffffffffffffffff1602179055505050505062000458565b828054620000e29062000363565b90600052602060002090601f01602090048101928262000106576000855562000152565b82601f106200012157805160ff191683800117855562000152565b8280016001018555821562000152579182015b828111156200015157825182559160200191906001019062000134565b5b50905062000161919062000165565b5090565b5b808211156200018057600081600090555060010162000166565b5090565b60006200019b6200019584620002ed565b620002c4565b905082815260208101848484011115620001b457600080fd5b620001c18482856200032d565b509392505050565b600082601f830112620001db57600080fd5b8151620001ed84826020860162000184565b91505092915050565b60008151905062000207816200043e565b92915050565b600080600080608085870312156200022457600080fd5b600085015167ffffffffffffffff8111156200023f57600080fd5b6200024d87828801620001c9565b945050602085015167ffffffffffffffff8111156200026b57600080fd5b6200027987828801620001c9565b935050604085015167ffffffffffffffff8111156200029757600080fd5b620002a587828801620001c9565b9250506060620002b887828801620001f6565b91505092959194509250565b6000620002d0620002e3565b9050620002de828262000399565b919050565b6000604051905090565b600067ffffffffffffffff8211156200030b576200030a620003fe565b5b62000316826200042d565b9050602081019050919050565b6000819050919050565b60005b838110156200034d57808201518184015260208101905062000330565b838111156200035d576000848401525b50505050565b600060028204905060018216806200037c57607f821691505b60208210811415620003935762000392620003cf565b5b50919050565b620003a4826200042d565b810181811067ffffffffffffffff82111715620003c657620003c5620003fe565b5b80604052505050565b7f4e487b7100000000000000000000000000000000000000000000000000000000600052602260045260246000fd5b7f4e487b7100000000000000000000000000000000000000000000000000000000600052604160045260246000fd5b6000601f19601f8301169050919050565b620004498162000323565b81146200045557600080fd5b50565b61048280620004686000396000f3fe60806040526004361061003f5760003560e01c806306fdde031461004457806348c981e21461006f578063a6c3e6b91461008b578063af640d0f146100b6575b600080fd5b34801561005057600080fd5b506100596100e1565b604051610066919061030e565b60405180910390f35b61008960048036038101906100849190610282565b61016f565b005b34801561009757600080fd5b506100a06101b9565b6040516100ad91906102f3565b60405180910390f35b3480156100c257600080fd5b506100cb6101df565b6040516100d8919061030e565b60405180910390f35b600180546100ee906103c3565b80601f016020809104026020016040519081016040528092919081815260200182805461011a906103c3565b80156101675780601f1061013c57610100808354040283529160200191610167565b820191906000526020600020905b81548152906001019060200180831161014a57829003601f168201915b505050505081565b8073ffffffffffffffffffffffffffffffffffffffff166108fc349081150290604051600060405180830381858888f193505050501580156101b5573d6000803e3d6000fd5b5050565b600460009054906101000a900473ffffffffffffffffffffffffffffffffffffffff1681565b600080546101ec906103c3565b80601f0160208091040260200160405190810160405280929190818152602001828054610218906103c3565b80156102655780601f1061023a57610100808354040283529160200191610265565b820191906000526020600020905b81548152906001019060200180831161024857829003601f168201915b505050505081565b60008135905061027c81610435565b92915050565b60006020828403121561029457600080fd5b60006102a28482850161026d565b91505092915050565b6102b48161034c565b82525050565b60006102c582610330565b6102cf818561033b565b93506102df818560208601610390565b6102e881610424565b840191505092915050565b600060208201905061030860008301846102ab565b92915050565b6000602082019050818103600083015261032881846102ba565b905092915050565b600081519050919050565b600082825260208201905092915050565b600061035782610370565b9050919050565b600061036982610370565b9050919050565b600073ffffffffffffffffffffffffffffffffffffffff82169050919050565b60005b838110156103ae578082015181840152602081019050610393565b838111156103bd576000848401525b50505050565b600060028204905060018216806103db57607f821691505b602082108114156103ef576103ee6103f5565b5b50919050565b7f4e487b7100000000000000000000000000000000000000000000000000000000600052602260045260246000fd5b6000601f19601f8301169050919050565b61043e8161035e565b811461044957600080fd5b5056fea264697066735822122055032b018914726af970ba3659671aca14c530a3c4d4b6af13b665381bf6111364736f6c63430008010033",
					"opcodes": "PUSH1 0x80 PUSH1 0x40 MSTORE CALLVALUE DUP1 ISZERO PUSH3 0x11 JUMPI PUSH1 0x0 DUP1 REVERT JUMPDEST POP PUSH1 0x40 MLOAD PUSH3 0x8EA CODESIZE SUB DUP1 PUSH3 0x8EA DUP4 CODECOPY DUP2 DUP2 ADD PUSH1 0x40 MSTORE DUP2 ADD SWAP1 PUSH3 0x37 SWAP2 SWAP1 PUSH3 0x20D JUMP JUMPDEST DUP4 PUSH1 0x0 SWAP1 DUP1 MLOAD SWAP1 PUSH1 0x20 ADD SWAP1 PUSH3 0x4F SWAP3 SWAP2 SWAP1 PUSH3 0xD4 JUMP JUMPDEST POP DUP3 PUSH1 0x1 SWAP1 DUP1 MLOAD SWAP1 PUSH1 0x20 ADD SWAP1 PUSH3 0x68 SWAP3 SWAP2 SWAP1 PUSH3 0xD4 JUMP JUMPDEST POP DUP2 PUSH1 0x2 SWAP1 DUP1 MLOAD SWAP1 PUSH1 0x20 ADD SWAP1 PUSH3 0x81 SWAP3 SWAP2 SWAP1 PUSH3 0xD4 JUMP JUMPDEST POP DUP1 PUSH1 0x3 DUP2 SWAP1 SSTORE POP CALLER PUSH1 0x4 PUSH1 0x0 PUSH2 0x100 EXP DUP2 SLOAD DUP2 PUSH20 0xFFFFFFFFFFFFFFFFFFFFFFFFFFFFFFFFFFFFFFFF MUL NOT AND SWAP1 DUP4 PUSH20 0xFFFFFFFFFFFFFFFFFFFFFFFFFFFFFFFFFFFFFFFF AND MUL OR SWAP1 SSTORE POP POP POP POP POP PUSH3 0x458 JUMP JUMPDEST DUP3 DUP1 SLOAD PUSH3 0xE2 SWAP1 PUSH3 0x363 JUMP JUMPDEST SWAP1 PUSH1 0x0 MSTORE PUSH1 0x20 PUSH1 0x0 KECCAK256 SWAP1 PUSH1 0x1F ADD PUSH1 0x20 SWAP1 DIV DUP2 ADD SWAP3 DUP3 PUSH3 0x106 JUMPI PUSH1 0x0 DUP6 SSTORE PUSH3 0x152 JUMP JUMPDEST DUP3 PUSH1 0x1F LT PUSH3 0x121 JUMPI DUP1 MLOAD PUSH1 0xFF NOT AND DUP4 DUP1 ADD OR DUP6 SSTORE PUSH3 0x152 JUMP JUMPDEST DUP3 DUP1 ADD PUSH1 0x1 ADD DUP6 SSTORE DUP3 ISZERO PUSH3 0x152 JUMPI SWAP2 DUP3 ADD JUMPDEST DUP3 DUP2 GT ISZERO PUSH3 0x151 JUMPI DUP3 MLOAD DUP3 SSTORE SWAP2 PUSH1 0x20 ADD SWAP2 SWAP1 PUSH1 0x1 ADD SWAP1 PUSH3 0x134 JUMP JUMPDEST JUMPDEST POP SWAP1 POP PUSH3 0x161 SWAP2 SWAP1 PUSH3 0x165 JUMP JUMPDEST POP SWAP1 JUMP JUMPDEST JUMPDEST DUP1 DUP3 GT ISZERO PUSH3 0x180 JUMPI PUSH1 0x0 DUP2 PUSH1 0x0 SWAP1 SSTORE POP PUSH1 0x1 ADD PUSH3 0x166 JUMP JUMPDEST POP SWAP1 JUMP JUMPDEST PUSH1 0x0 PUSH3 0x19B PUSH3 0x195 DUP5 PUSH3 0x2ED JUMP JUMPDEST PUSH3 0x2C4 JUMP JUMPDEST SWAP1 POP DUP3 DUP2 MSTORE PUSH1 0x20 DUP2 ADD DUP5 DUP5 DUP5 ADD GT ISZERO PUSH3 0x1B4 JUMPI PUSH1 0x0 DUP1 REVERT JUMPDEST PUSH3 0x1C1 DUP5 DUP3 DUP6 PUSH3 0x32D JUMP JUMPDEST POP SWAP4 SWAP3 POP POP POP JUMP JUMPDEST PUSH1 0x0 DUP3 PUSH1 0x1F DUP4 ADD SLT PUSH3 0x1DB JUMPI PUSH1 0x0 DUP1 REVERT JUMPDEST DUP2 MLOAD PUSH3 0x1ED DUP5 DUP3 PUSH1 0x20 DUP7 ADD PUSH3 0x184 JUMP JUMPDEST SWAP2 POP POP SWAP3 SWAP2 POP POP JUMP JUMPDEST PUSH1 0x0 DUP2 MLOAD SWAP1 POP PUSH3 0x207 DUP2 PUSH3 0x43E JUMP JUMPDEST SWAP3 SWAP2 POP POP JUMP JUMPDEST PUSH1 0x0 DUP1 PUSH1 0x0 DUP1 PUSH1 0x80 DUP6 DUP8 SUB SLT ISZERO PUSH3 0x224 JUMPI PUSH1 0x0 DUP1 REVERT JUMPDEST PUSH1 0x0 DUP6 ADD MLOAD PUSH8 0xFFFFFFFFFFFFFFFF DUP2 GT ISZERO PUSH3 0x23F JUMPI PUSH1 0x0 DUP1 REVERT JUMPDEST PUSH3 0x24D DUP8 DUP3 DUP9 ADD PUSH3 0x1C9 JUMP JUMPDEST SWAP5 POP POP PUSH1 0x20 DUP6 ADD MLOAD PUSH8 0xFFFFFFFFFFFFFFFF DUP2 GT ISZERO PUSH3 0x26B JUMPI PUSH1 0x0 DUP1 REVERT JUMPDEST PUSH3 0x279 DUP8 DUP3 DUP9 ADD PUSH3 0x1C9 JUMP JUMPDEST SWAP4 POP POP PUSH1 0x40 DUP6 ADD MLOAD PUSH8 0xFFFFFFFFFFFFFFFF DUP2 GT ISZERO PUSH3 0x297 JUMPI PUSH1 0x0 DUP1 REVERT JUMPDEST PUSH3 0x2A5 DUP8 DUP3 DUP9 ADD PUSH3 0x1C9 JUMP JUMPDEST SWAP3 POP POP PUSH1 0x60 PUSH3 0x2B8 DUP8 DUP3 DUP9 ADD PUSH3 0x1F6 JUMP JUMPDEST SWAP2 POP POP SWAP3 SWAP6 SWAP2 SWAP5 POP SWAP3 POP JUMP JUMPDEST PUSH1 0x0 PUSH3 0x2D0 PUSH3 0x2E3 JUMP JUMPDEST SWAP1 POP PUSH3 0x2DE DUP3 DUP3 PUSH3 0x399 JUMP JUMPDEST SWAP2 SWAP1 POP JUMP JUMPDEST PUSH1 0x0 PUSH1 0x40 MLOAD SWAP1 POP SWAP1 JUMP JUMPDEST PUSH1 0x0 PUSH8 0xFFFFFFFFFFFFFFFF DUP3 GT ISZERO PUSH3 0x30B JUMPI PUSH3 0x30A PUSH3 0x3FE JUMP JUMPDEST JUMPDEST PUSH3 0x316 DUP3 PUSH3 0x42D JUMP JUMPDEST SWAP1 POP PUSH1 0x20 DUP2 ADD SWAP1 POP SWAP2 SWAP1 POP JUMP JUMPDEST PUSH1 0x0 DUP2 SWAP1 POP SWAP2 SWAP1 POP JUMP JUMPDEST PUSH1 0x0 JUMPDEST DUP4 DUP2 LT ISZERO PUSH3 0x34D JUMPI DUP1 DUP3 ADD MLOAD DUP2 DUP5 ADD MSTORE PUSH1 0x20 DUP2 ADD SWAP1 POP PUSH3 0x330 JUMP JUMPDEST DUP4 DUP2 GT ISZERO PUSH3 0x35D JUMPI PUSH1 0x0 DUP5 DUP5 ADD MSTORE JUMPDEST POP POP POP POP JUMP JUMPDEST PUSH1 0x0 PUSH1 0x2 DUP3 DIV SWAP1 POP PUSH1 0x1 DUP3 AND DUP1 PUSH3 0x37C JUMPI PUSH1 0x7F DUP3 AND SWAP2 POP JUMPDEST PUSH1 0x20 DUP3 LT DUP2 EQ ISZERO PUSH3 0x393 JUMPI PUSH3 0x392 PUSH3 0x3CF JUMP JUMPDEST JUMPDEST POP SWAP2 SWAP1 POP JUMP JUMPDEST PUSH3 0x3A4 DUP3 PUSH3 0x42D JUMP JUMPDEST DUP2 ADD DUP2 DUP2 LT PUSH8 0xFFFFFFFFFFFFFFFF DUP3 GT OR ISZERO PUSH3 0x3C6 JUMPI PUSH3 0x3C5 PUSH3 0x3FE JUMP JUMPDEST JUMPDEST DUP1 PUSH1 0x40 MSTORE POP POP POP JUMP JUMPDEST PUSH32 0x4E487B7100000000000000000000000000000000000000000000000000000000 PUSH1 0x0 MSTORE PUSH1 0x22 PUSH1 0x4 MSTORE PUSH1 0x24 PUSH1 0x0 REVERT JUMPDEST PUSH32 0x4E487B7100000000000000000000000000000000000000000000000000000000 PUSH1 0x0 MSTORE PUSH1 0x41 PUSH1 0x4 MSTORE PUSH1 0x24 PUSH1 0x0 REVERT JUMPDEST PUSH1 0x0 PUSH1 0x1F NOT PUSH1 0x1F DUP4 ADD AND SWAP1 POP SWAP2 SWAP1 POP JUMP JUMPDEST PUSH3 0x449 DUP2 PUSH3 0x323 JUMP JUMPDEST DUP2 EQ PUSH3 0x455 JUMPI PUSH1 0x0 DUP1 REVERT JUMPDEST POP JUMP JUMPDEST PUSH2 0x482 DUP1 PUSH3 0x468 PUSH1 0x0 CODECOPY PUSH1 0x0 RETURN INVALID PUSH1 0x80 PUSH1 0x40 MSTORE PUSH1 0x4 CALLDATASIZE LT PUSH2 0x3F JUMPI PUSH1 0x0 CALLDATALOAD PUSH1 0xE0 SHR DUP1 PUSH4 0x6FDDE03 EQ PUSH2 0x44 JUMPI DUP1 PUSH4 0x48C981E2 EQ PUSH2 0x6F JUMPI DUP1 PUSH4 0xA6C3E6B9 EQ PUSH2 0x8B JUMPI DUP1 PUSH4 0xAF640D0F EQ PUSH2 0xB6 JUMPI JUMPDEST PUSH1 0x0 DUP1 REVERT JUMPDEST CALLVALUE DUP1 ISZERO PUSH2 0x50 JUMPI PUSH1 0x0 DUP1 REVERT JUMPDEST POP PUSH2 0x59 PUSH2 0xE1 JUMP JUMPDEST PUSH1 0x40 MLOAD PUSH2 0x66 SWAP2 SWAP1 PUSH2 0x30E JUMP JUMPDEST PUSH1 0x40 MLOAD DUP1 SWAP2 SUB SWAP1 RETURN JUMPDEST PUSH2 0x89 PUSH1 0x4 DUP1 CALLDATASIZE SUB DUP2 ADD SWAP1 PUSH2 0x84 SWAP2 SWAP1 PUSH2 0x282 JUMP JUMPDEST PUSH2 0x16F JUMP JUMPDEST STOP JUMPDEST CALLVALUE DUP1 ISZERO PUSH2 0x97 JUMPI PUSH1 0x0 DUP1 REVERT JUMPDEST POP PUSH2 0xA0 PUSH2 0x1B9 JUMP JUMPDEST PUSH1 0x40 MLOAD PUSH2 0xAD SWAP2 SWAP1 PUSH2 0x2F3 JUMP JUMPDEST PUSH1 0x40 MLOAD DUP1 SWAP2 SUB SWAP1 RETURN JUMPDEST CALLVALUE DUP1 ISZERO PUSH2 0xC2 JUMPI PUSH1 0x0 DUP1 REVERT JUMPDEST POP PUSH2 0xCB PUSH2 0x1DF JUMP JUMPDEST PUSH1 0x40 MLOAD PUSH2 0xD8 SWAP2 SWAP1 PUSH2 0x30E JUMP JUMPDEST PUSH1 0x40 MLOAD DUP1 SWAP2 SUB SWAP1 RETURN JUMPDEST PUSH1 0x1 DUP1 SLOAD PUSH2 0xEE SWAP1 PUSH2 0x3C3 JUMP JUMPDEST DUP1 PUSH1 0x1F ADD PUSH1 0x20 DUP1 SWAP2 DIV MUL PUSH1 0x20 ADD PUSH1 0x40 MLOAD SWAP1 DUP2 ADD PUSH1 0x40 MSTORE DUP1 SWAP3 SWAP2 SWAP1 DUP2 DUP2 MSTORE PUSH1 0x20 ADD DUP3 DUP1 SLOAD PUSH2 0x11A SWAP1 PUSH2 0x3C3 JUMP JUMPDEST DUP1 ISZERO PUSH2 0x167 JUMPI DUP1 PUSH1 0x1F LT PUSH2 0x13C JUMPI PUSH2 0x100 DUP1 DUP4 SLOAD DIV MUL DUP4 MSTORE SWAP2 PUSH1 0x20 ADD SWAP2 PUSH2 0x167 JUMP JUMPDEST DUP3 ADD SWAP2 SWAP1 PUSH1 0x0 MSTORE PUSH1 0x20 PUSH1 0x0 KECCAK256 SWAP1 JUMPDEST DUP2 SLOAD DUP2 MSTORE SWAP1 PUSH1 0x1 ADD SWAP1 PUSH1 0x20 ADD DUP1 DUP4 GT PUSH2 0x14A JUMPI DUP3 SWAP1 SUB PUSH1 0x1F AND DUP3 ADD SWAP2 JUMPDEST POP POP POP POP POP DUP2 JUMP JUMPDEST DUP1 PUSH20 0xFFFFFFFFFFFFFFFFFFFFFFFFFFFFFFFFFFFFFFFF AND PUSH2 0x8FC CALLVALUE SWAP1 DUP2 ISZERO MUL SWAP1 PUSH1 0x40 MLOAD PUSH1 0x0 PUSH1 0x40 MLOAD DUP1 DUP4 SUB DUP2 DUP6 DUP9 DUP9 CALL SWAP4 POP POP POP POP ISZERO DUP1 ISZERO PUSH2 0x1B5 JUMPI RETURNDATASIZE PUSH1 0x0 DUP1 RETURNDATACOPY RETURNDATASIZE PUSH1 0x0 REVERT JUMPDEST POP POP JUMP JUMPDEST PUSH1 0x4 PUSH1 0x0 SWAP1 SLOAD SWAP1 PUSH2 0x100 EXP SWAP1 DIV PUSH20 0xFFFFFFFFFFFFFFFFFFFFFFFFFFFFFFFFFFFFFFFF AND DUP2 JUMP JUMPDEST PUSH1 0x0 DUP1 SLOAD PUSH2 0x1EC SWAP1 PUSH2 0x3C3 JUMP JUMPDEST DUP1 PUSH1 0x1F ADD PUSH1 0x20 DUP1 SWAP2 DIV MUL PUSH1 0x20 ADD PUSH1 0x40 MLOAD SWAP1 DUP2 ADD PUSH1 0x40 MSTORE DUP1 SWAP3 SWAP2 SWAP1 DUP2 DUP2 MSTORE PUSH1 0x20 ADD DUP3 DUP1 SLOAD PUSH2 0x218 SWAP1 PUSH2 0x3C3 JUMP JUMPDEST DUP1 ISZERO PUSH2 0x265 JUMPI DUP1 PUSH1 0x1F LT PUSH2 0x23A JUMPI PUSH2 0x100 DUP1 DUP4 SLOAD DIV MUL DUP4 MSTORE SWAP2 PUSH1 0x20 ADD SWAP2 PUSH2 0x265 JUMP JUMPDEST DUP3 ADD SWAP2 SWAP1 PUSH1 0x0 MSTORE PUSH1 0x20 PUSH1 0x0 KECCAK256 SWAP1 JUMPDEST DUP2 SLOAD DUP2 MSTORE SWAP1 PUSH1 0x1 ADD SWAP1 PUSH1 0x20 ADD DUP1 DUP4 GT PUSH2 0x248 JUMPI DUP3 SWAP1 SUB PUSH1 0x1F AND DUP3 ADD SWAP2 JUMPDEST POP POP POP POP POP DUP2 JUMP JUMPDEST PUSH1 0x0 DUP2 CALLDATALOAD SWAP1 POP PUSH2 0x27C DUP2 PUSH2 0x435 JUMP JUMPDEST SWAP3 SWAP2 POP POP JUMP JUMPDEST PUSH1 0x0 PUSH1 0x20 DUP3 DUP5 SUB SLT ISZERO PUSH2 0x294 JUMPI PUSH1 0x0 DUP1 REVERT JUMPDEST PUSH1 0x0 PUSH2 0x2A2 DUP5 DUP3 DUP6 ADD PUSH2 0x26D JUMP JUMPDEST SWAP2 POP POP SWAP3 SWAP2 POP POP JUMP JUMPDEST PUSH2 0x2B4 DUP2 PUSH2 0x34C JUMP JUMPDEST DUP3 MSTORE POP POP JUMP JUMPDEST PUSH1 0x0 PUSH2 0x2C5 DUP3 PUSH2 0x330 JUMP JUMPDEST PUSH2 0x2CF DUP2 DUP6 PUSH2 0x33B JUMP JUMPDEST SWAP4 POP PUSH2 0x2DF DUP2 DUP6 PUSH1 0x20 DUP7 ADD PUSH2 0x390 JUMP JUMPDEST PUSH2 0x2E8 DUP2 PUSH2 0x424 JUMP JUMPDEST DUP5 ADD SWAP2 POP POP SWAP3 SWAP2 POP POP JUMP JUMPDEST PUSH1 0x0 PUSH1 0x20 DUP3 ADD SWAP1 POP PUSH2 0x308 PUSH1 0x0 DUP4 ADD DUP5 PUSH2 0x2AB JUMP JUMPDEST SWAP3 SWAP2 POP POP JUMP JUMPDEST PUSH1 0x0 PUSH1 0x20 DUP3 ADD SWAP1 POP DUP2 DUP2 SUB PUSH1 0x0 DUP4 ADD MSTORE PUSH2 0x328 DUP2 DUP5 PUSH2 0x2BA JUMP JUMPDEST SWAP1 POP SWAP3 SWAP2 POP POP JUMP JUMPDEST PUSH1 0x0 DUP2 MLOAD SWAP1 POP SWAP2 SWAP1 POP JUMP JUMPDEST PUSH1 0x0 DUP3 DUP3 MSTORE PUSH1 0x20 DUP3 ADD SWAP1 POP SWAP3 SWAP2 POP POP JUMP JUMPDEST PUSH1 0x0 PUSH2 0x357 DUP3 PUSH2 0x370 JUMP JUMPDEST SWAP1 POP SWAP2 SWAP1 POP JUMP JUMPDEST PUSH1 0x0 PUSH2 0x369 DUP3 PUSH2 0x370 JUMP JUMPDEST SWAP1 POP SWAP2 SWAP1 POP JUMP JUMPDEST PUSH1 0x0 PUSH20 0xFFFFFFFFFFFFFFFFFFFFFFFFFFFFFFFFFFFFFFFF DUP3 AND SWAP1 POP SWAP2 SWAP1 POP JUMP JUMPDEST PUSH1 0x0 JUMPDEST DUP4 DUP2 LT ISZERO PUSH2 0x3AE JUMPI DUP1 DUP3 ADD MLOAD DUP2 DUP5 ADD MSTORE PUSH1 0x20 DUP2 ADD SWAP1 POP PUSH2 0x393 JUMP JUMPDEST DUP4 DUP2 GT ISZERO PUSH2 0x3BD JUMPI PUSH1 0x0 DUP5 DUP5 ADD MSTORE JUMPDEST POP POP POP POP JUMP JUMPDEST PUSH1 0x0 PUSH1 0x2 DUP3 DIV SWAP1 POP PUSH1 0x1 DUP3 AND DUP1 PUSH2 0x3DB JUMPI PUSH1 0x7F DUP3 AND SWAP2 POP JUMPDEST PUSH1 0x20 DUP3 LT DUP2 EQ ISZERO PUSH2 0x3EF JUMPI PUSH2 0x3EE PUSH2 0x3F5 JUMP JUMPDEST JUMPDEST POP SWAP2 SWAP1 POP JUMP JUMPDEST PUSH32 0x4E487B7100000000000000000000000000000000000000000000000000000000 PUSH1 0x0 MSTORE PUSH1 0x22 PUSH1 0x4 MSTORE PUSH1 0x24 PUSH1 0x0 REVERT JUMPDEST PUSH1 0x0 PUSH1 0x1F NOT PUSH1 0x1F DUP4 ADD AND SWAP1 POP SWAP2 SWAP1 POP JUMP JUMPDEST PUSH2 0x43E DUP2 PUSH2 0x35E JUMP JUMPDEST DUP2 EQ PUSH2 0x449 JUMPI PUSH1 0x0 DUP1 REVERT JUMPDEST POP JUMP INVALID LOG2 PUSH5 0x6970667358 0x22 SLT KECCAK256 SSTORE SUB 0x2B ADD DUP10 EQ PUSH19 0x6AF970BA3659671ACA14C530A3C4D4B6AF13B6 PUSH6 0x381BF6111364 PUSH20 0x6F6C634300080100330000000000000000000000 "
				},
				"gasEstimates": {
					"creation": {
						"codeDepositCost": "230800",
						"executionCost": "infinite",
						"totalCost": "infinite"
					},
					"external": {
						"author()": "1236",
						"id()": "infinite",
						"name()": "infinite",
						"sendEther(address)": "infinite"
					}
				},
				"methodIdentifiers": {
					"author()": "a6c3e6b9",
					"id()": "af640d0f",
					"name()": "06fdde03",
					"sendEther(address)": "48c981e2"
				}
			},
			"storageLayout": {
				"storage": [
					{
						"astId": 3,
						"contract": "Contracts/ElevenEpisode.sol:ElevenEpisode",
						"label": "id",
						"offset": 0,
						"slot": "0",
						"type": "t_string_storage"
					},
					{
						"astId": 5,
						"contract": "Contracts/ElevenEpisode.sol:ElevenEpisode",
						"label": "name",
						"offset": 0,
						"slot": "1",
						"type": "t_string_storage"
					},
					{
						"astId": 7,
						"contract": "Contracts/ElevenEpisode.sol:ElevenEpisode",
						"label": "description",
						"offset": 0,
						"slot": "2",
						"type": "t_string_storage"
					},
					{
						"astId": 9,
						"contract": "Contracts/ElevenEpisode.sol:ElevenEpisode",
						"label": "fundraisingoal",
						"offset": 0,
						"slot": "3",
						"type": "t_uint256"
					},
					{
						"astId": 11,
						"contract": "Contracts/ElevenEpisode.sol:ElevenEpisode",
						"label": "author",
						"offset": 0,
						"slot": "4",
						"type": "t_address"
					}
				],
				"types": {
					"t_address": {
						"encoding": "inplace",
						"label": "address",
						"numberOfBytes": "20"
					},
					"t_string_storage": {
						"encoding": "bytes",
						"label": "string",
						"numberOfBytes": "32"
					},
					"t_uint256": {
						"encoding": "inplace",
						"label": "uint256",
						"numberOfBytes": "32"
					}
				}
			},
			"userdoc": {
				"kind": "user",
				"methods": {},
				"version": 1
			}
		}
	}
}